:0400000011EF29F0E3
:1000080000C01AF001C019F002C018F004C017F0BF
:1000180008C016F00CC015F0E1CF1DF0E2CF1EF0BD
:10002800E9CF1BF0EACF1CF0F0A223D08C7081B48A
:100038001FD0CA0ED76EAC0ED66EF29404014EB520
:1000480001D0F28481B401D0FDD7F2A409D0040113
:100058004EA906D04EB502D04E8501D04E9508D097
:1000680004014EA505D04EB902D04E8901D04E9953
:10007800F092F2A255D004014EB50ED0E9C2EAF2D0
:10008800000E80B0010E0501F16FE90EF26F020E4D
:10009800F36F1CEC23F043D004014EB90ED08DC58C
:1000A800EAF2000E80B0010E0501F16F8D0EF26FBD
:1000B800050EF36FF4EC23F032D004014EBF0ED0DE
:1000C80040C5EAF2000E80B0010E0501F16F400E46
:1000D800F26F050EF36F25EC24F021D004014EBB1E
:1000E8000ED092C5EAF2000E80B0010E0501F16F44
:1000F800920EF26F050EF36F4DEC23F010D0040151
:100108004EBD0DD090C5EAF2000E80B0010E05017B
:10011800F16F900EF26F050EF36F7EEC23F0F29202
:10012800F0A043D10501026A83B2022A02C000F09E
:1001380000360090000E83B4010E646F00506427EF
:100148000CD0050E646F15D00A0E646F12D0090E1C
:10015800646F0FD0060E646F0CD06451010AF1E091
:100168006451020AF1E06451000AF1E06451030AA3
:10017800F1E07D51070A0CE164C57DF5010E806F41
:100188007E6B7F6B816B826B836B846B3F6B0CD157
:10019800050E046E64C500F0CAEC10F008C000F04B
:1001A8000050000AD8A46ED0050E046E7DC500F07C
:1001B800CAEC10F008C000F00050000A63E1645176
:1001C8007D1926E18051010F006E00C080F5805135
:1001D800190A06E1806B7F51010F006E00C07FF5A0
:1001E8007F510A0A06E17F6B7E51010F006E00C045
:1001F8007EF57E510A0A0BE17E6B010E8325006EA7
:10020800000E8421016E00C083F501C084F539D049
:100218008005006E00C080F58051FF0A06E1180EC7
:10022800806F7F05006E00C07FF57F51FF0A06E1F1
:10023800090E7F6F7E05006E00C07EF57E51FF0AB5
:100248000CE1090E7E6F010E835D006E000E84596D
:10025800016E00C083F501C084F5FF0E841902E128
:10026800FF0E83190EE1836B846B010E806F7F6B29
:100278007E6B7D51050A03E10A0E7D6F02D0050EE3
:100288007D6F92D0030E046E64C500F0CAEC10F0C6
:1002980008C000F00050000A5FE1030E046E7DC53F
:1002A80000F0CAEC10F008C000F00050000A54E159
:1002B80064517D1922E18051010F006E00C080F564
:1002C8008051150A0BE1806B040E8125006E000E2B
:1002D8008221016E00C081F501C082F5000E8219ED
:1002E80002E1B40E811908E17D51060A03E1090E05
:1002F8007D6F02D0060E7D6F2ED08005006E00C087
:1003080080F5800E8019006E800E000A005C0CE2F9
:10031800140E806F040E815D006E000E8259016E0E
:1003280000C081F501C082F5800E8219006E800E32
:10033800005C02E1000E815D0EE2816B826B010EB2
:10034800806F7F6B7E6B7D51060A03E1090E7D6F1E
:1003580002D0060E7D6F28D0030E026E3FC500F056
:10036800000E016E025005E0003600900136FF0FC6
:10037800FAD74F0E0024E16E040E0120E26E080E3B
:10038800006E7D0EE96E050EEA6EEECFE6FF000602
:10039800FCE13F2B64C57DF5010E806F7F6B7E6BA2
:1003A800836B846B816B826BF0901AC000F019C06C
:1003B80001F018C002F017C004F016C008F015C00C
:1003C8000CF01BC0E9FF1CC0EAFF1DC0E1FF1EC006
:0403D800E2FF11002F
:1003DC00F0C56FFF6DB002D00000FCD76FCF00F0FE
:0203EC001200FD
:1003EE00F0C5C9FFC7B002D00000FCD7C9CF00F0DE
:0203FE001200EB
:0C040000000000000000000000001200DE
:10040C00F250026EF29E0500FF6A0150FE6E005023
:08041C00FD6E02BEF28E12001B
:10042400EDC500F00036009000C0EDF5829C008C14
:10043400008075C5E1FF76C5E2FF00C0E6FF73C525
:1004440000F074C501F0E0DF75C5E1FF76C5E2FF99
:10045400EEC5E6FF73C500F074C501F0D5DF75C5C0
:10046400E1FF76C5E2FFE66A73C500F074C501F0EA
:10047400CBDF00C0EFF5828CC1DFC0DFBFDFEFC58B
:0404840000F0120072
:10048800EDC500F00036009000C0EDF5829C008CB0
:10049800FE0E001675C5E1FF76C5E2FF00C0E6FF57
:1004A80073C500F074C501F0ADDF75C5E1FF76C511
:1004B800E2FFEEC5E6FF73C500F074C501F0A2DFE8
:1004C80075C5E1FF76C5E2FFEFC5E6FF73C500F02D
:1004D80074C501F097DF828C8FDF8EDF8DDF12000D
:0E04E800EBC5EDF5120E0501EE6F98DF120068
:1004F600EBC5EDF5140E0501EE6FECC5EFF5C1DFAA
:020506001200E1
:0C050800100E0D6E0D2EFED7000012002C
:1005140065C5EBF5E7DF00C0E9F5008800C0E9F543
:1005240065C5EBF500C0ECF5E4DFECDFEF0E05018B
:10053400E915006E00C0E9F565C5EBF500C0ECF502
:04054400D8DF1200EA
:10054800E9C5EDF5010E0501EE6FEAC5EFF598DF97
:0205580012008F
:10055A00E9C5EDF5150E0501EE6FEAC5EFF58FDF7A
:02056A0012007D
:0E056C00E9C5EDF5130E0501EE6F56DF120026
:10057A0065C5EBF5B4DFF30E00140501EC6F65C534
:10058A00EBF5B4DFB80E0501E711EA6F65C5E9F5C9
:06059A00DFDFBBDF1200F1
:1005A0007F0E0501E71765C5EBF59EDFF30E00141E
:1005B0000501EC6F65C5EBF59EDF400E0501E71107
:1005C000006E00C0E7F565C5E9F500C0EAF5C5DFD6
:0405D000A1DF120095
:1005D40065C5EBF587DF00C0E8F5E70E0501E81512
:1005E400006E040E0010E86F65C5EBF5E8C5ECF588
:1005F40080DF65C5E9F5E7C5EAF5ADDF89DF1200FF
:1006040065C5EBF56FDFEF0E00140501EC6F0C0E02
:10061400EC1365C5EBF56DDF65C5E9F5FF0E050166
:10062400EA6F90DF65C5EBF55DDF100E0010050184
:10063400EC6F65C5EBF55DDF65C5E9F595DF00C0D9
:10064400E7F565C5EBF54EDFE70E00140501EC6F29
:1006540065C5EBF54EDF65C5E9F50501EA6B72DFAB
:06066400E7C500F01200E2
:10066A007F0E0501E715006E00C0E7F5400E001485
:10067A00016E0150000A0CE065C5EBF530DFFD0E96
:10068A0000140501EC6FEC8165C5EBF52FDF0BD08B
:10069A0065C5EBF524DFFE0E00140501EC6FEC8353
:0806AA0065C5EBF523DF12002A
:1006B2000B6A0A6A096A00500402F4CF09F0F3CF08
:1006C20008F001500502F4CF0BF0F3CF0AF000500E
:1006D2000502F3500926F4500A22E86A0B2201505F
:1006E2000402F3500926F4500A22E86A0B2208C0D9
:1006F20000F009C001F00AC002F00BC003F01200C2
:10070200000E0501E15D0AE3E1517F0807E3000EF7
:10071200E25D04E3E2513F0801E301D04DD0E1C5BF
:10072200E7F5A2DFE2C5E7F50501E733E79FE73327
:10073200E79FE733E79F20DFE1C5E7F530DF61DFC1
:1007420000C0E5F55EDF00C0E5F5E2C5E7F50501AD
:10075200E733E79FE733E79FE733E79F0DDFE1C525
:10076200E7F51DDF070E0501E215006E00C0E4F596
:1007720000C001F0010E006E015004E0003600904E
:10078200FF0FFBD700C0E4F5001CE66F09D0E6516D
:10079200E5170FD0E451E5130CD0E451E51B09D065
:1007A200E351000AF4E0E351010AF4E0E351020AE2
:0A07B200F4E0E5C5E7F50DDF1200E5
:1007BC00000E0501D95D04E3D9517F0801E301D096
:1007CC0028D0000ED75DD8A0D76BD7513F0802E2D6
:1007DC003F0ED76F000ED85DD8A0D86BD8513F080C
:1007EC0002E23F0ED86FD751D85D06E2D7C5DBF5D4
:1007FC00D8C5D7F5DBC5D8F5D751D85D0AE3D9C52F
:10080C00E1F5D7C5E2F5DAC5E3F575DF0501D72BC0
:04081C00F3D71200FC
:100820000501D951070801E292D04F51D75D006E02
:1008300050C501F0000E015669C504F0000E056EAA
:1008400038DF00C0DFF501C0E0F5D8C5E7F5A8DE68
:10085000D9C5E7F592DE0501DB6B6905016E026A19
:10086000000E025A800E0218006E800E005C02E13B
:10087000DB51015C4BE3D8517F0801E268D0D8C559
:10088000E7F5F3DED9C5E7F578DED8C5E7F588DE0C
:10089000B9DE00C0DCF5B6DE00C0DCF5D8C5E7F592
:1008A000E4DED9C5E7F569DED8C5E7F579DE0501EF
:1008B000DF516625F66EE0516721F76E000EE0BF4E
:1008C000FF0E6821F86E0900F5CF00F000C0DDF5DD
:1008D000DF4BE02B001CDE6F09D0DEC5DCF50FD04E
:1008E000DDC5DCF50CD0DD51DC1B09D0DA51000A86
:1008F000F4E0DA51010AF4E0DA51020AF4E0DCC56E
:10090000E7F568DE0501D82BDB2BA7D7D8C5E7F5BF
:10091000ACDED9C5E7F531DED8C5E7F541DEFF0E1F
:100920000501DD6FDE6B0CD0DDC5DCF5DDC5E7F55F
:1009300051DE0DD0DEC5DCF5DEC5E7F54BDE07D0B8
:100940000501DA51000AF0E0DA51010AF3E0120081
:10095000000E0501D95D04E3D9513F0801E301D040
:1009600028D0000ED75DD8A0D76BD7517F0802E200
:100970007F0ED76F000ED85DD8A0D86BD8517F08F6
:1009800002E27F0ED86FD751D85D06E2D7C5DBF5FE
:10099000D8C5D7F5DBC5D8F5D751D85D0AE3D7C59B
:1009A000E1F5D9C5E2F5DAC5E3F5ABDE0501D72BF4
:0409B000F3D7120067
:1009B400C9C56AF5CAC56BF5CBC56CF5020E050150
:1009C400C925F66E000ECA21F76E000ECB21F86E13
:1009D4000900F5CF04F0030EC925F66E000ECA21F6
:1009E400F76E000ECB21F86E0900F5CF03F003C0BB
:1009F40001F0006A045000245E6F000E01205F6F56
:100A0400040EC925F66E000ECA21F76E000ECB2126
:100A1400F86E0900F5CF04F0050EC925F66E000E38
:100A2400CA21F76E000ECB21F86E0900F5CF03F052
:100A340003C001F0006A045000245C6F000E012022
:100A44005D6F060EC925F66E000ECA21F76E000E04
:100A5400CB21F86E0900F5CF45F5000E466FCCC5E5
:100A640051F5000E526FCDC553F5010E0101A36F70
:040A7400A26B12005F
:100A7800470E0501D56F050ED66F000E006ECE51DC
:100A8800005C02E1CD51000843E243C5E1FF44C5E3
:100A9800E2FFC9C5E6FFCAC5E6FFCBC5E6FFCCC580
:100AA800E6FFCDC5E6FFCEC5E6FFD10EE66E050E24
:100AB800E66E41C500F042C501F0A4DC00C0D3F5E4
:100AC80001C0D4F50501CF6BD06BD251D05D02E1E6
:100AD800D151CF5D11E2D3C5E9FFD4C5EAFFD5C531
:100AE800E1FFD6C5E2FFEECFE6FFD54BD62BD34BC1
:100AF800D42BCF4BD02BE9D7D151CD5FD251CE5B80
:100B0800D151C927D251CA23000ECB23CC23B5D744
:020B18001200C9
:100B1A000CD08C848C9216D08C848C8213D08C94BA
:100B2A008C9210D08C948C820DD00501CD51010A83
:100B3A00F0E0CD51020AF0E0CD51030AF0E0CD51C8
:100B4A00040AF0E00501C951CA11CB11CC111BE00E
:100B5A008A820A0E0C6EBC0E0D6E0D2EFED70C2E5E
:100B6A00FCD700008A920A0E0C6EBC0E0D6E0D2E7A
:100B7A00FED70C2EFCD70000010EC95F000ECA5B1F
:080B8A00CB5BCC5BDFD712004E
:100B9200C9C5D7F5CBC5D8F5CAC5D9F5CDC5DAF5DE
:100BA200D6DEC9C5D7F5CBC5D8F5CCC5D9F5CDC5E7
:100BB200DAF5CDDECAC5D7F5CCC5D8F5C9C5D9F5A4
:100BC200CDC5DAF5FADDCAC5D7F5CCC5D8F5CBC5A2
:0A0BD200D9F5CDC5DAF5F1DD12000A
:100BDC000501CE6BC9C5E9FFCAC5EAFFEECFCFF55B
:100BEC00CF51000A1FE0CE51C925E96E000ECA2173
:100BFC00EA6EEECFD7F5CBC5D8F5CCC5D9F5CDC5BA
:100C0C00DAF508DE05016951010F006E0050CB27A3
:100C1C00CE2BCE51C925E96E000ECA21EA6EEECF5D
:060C2C00CFF5DED7120037
:100C3200000E0501B41902E1000EB31908E1AFC5B7
:100C4200E1F5B1C5E2F5B5C5E3F55ADDDBD0050145
:100C5200BA6BBB6BAF51B15DBC6FB051B259BD6FD6
:100C6200B3C5B8F5B4C5B9F5B3C500F0B4C501F064
:100C720000360090013600C0B6F501C0B7F500504D
:100C82000308B66F01C0B7F5000EB757010EB825BD
:100C9200016E000EB921026E800EBB19006E800E2D
:100CA2000218005C02E10150BA5DD8B0ABD0BA5173
:100CB200AF25E16FB851B125E26FB5C5E3F520DD8F
:100CC2000501BA51AF25E16FB851B15DE26FB5C50B
:100CD200E3F516DD800E006E800E0501BB19005C87
:100CE20002E1BA51000813E2BA51AF5DE16FB851A7
:100CF200B125E26FB5C5E3F503DD0501BA51AF5D7C
:100D0200E16FB851B15DE26FB5C5E3F5F9DC0501FC
:100D1200BB51B91902E1B851BA1938E0B851B1253D
:100D2200E16FBC51E15FBA51B125E26FB5C5E3F5A0
:100D3200E7DC0501B851B15DE16FBC51E15FBA5129
:100D4200B125E26FB5C5E3F5DBDC800E006E800EE7
:100D52000501BB19005C02E1BA51000817E2B85163
:100D6200B125E16FBC51E15FBA51B15DE26FB5C52A
:100D7200E3F5C6DC0501B851B15DE16FBC51E15F3D
:100D8200BA51B15DE26FB5C5E3F5BADC800E05017B
:100D9200B719006E800E005C02E1000EB65D13E230
:100DA200BAC500F0BBC501F000360090013600362E
:100DB20000900136060E0026000E01220050B627D2
:100DC2000150B7231CD0B851BA5D036EB951BB595B
:100DD200046E03C000F004C001F00036009001363A
:100DE2000036009001360A0E0026000E0122005045
:100DF200B6270150B723010EB85F000EB95BBA4B9C
:060E0200BB2B44D71200D7
:100E0800010E0501AF6F000EB06FB16BB26BB36B23
:100E1800B46BB16BB26BB36BB46B800E006E800EAB
:100E2800B219005C02E1B15114083FE3800E006E74
:100E3800800EB419005C02E1B351140836E3800E49
:100E4800010A006E800EB019005C02E1AF51D808AB
:100E58002CE3010EC96F000ECA6FCB6FCC6F020E68
:100E6800CD6F57DEAF4BB02B83A003D0B14BB22B65
:100E78000BD0800E006E800EB219005C02E1B151F9
:100E8800000802E2B16BB26B83A603D0B34BB42B5C
:100E98000BD0800E006E800EB419005C02E1B351D5
:100EA800000802E2B36BB46BB8D7800EB419006EB9
:100EB800800E005C02E1150EB35D0FE3AFC5C9F506
:100EC800B0C5CAF5000EB0BFFF0ECB6FCC6F030ED6
:100ED800CD6F1FDE010E006E56D0B051010A02E13F
:100EE800D90EAF190DE1D90EC96F010ECA6F000EE8
:100EF800CB6FCC6F030ECD6F0CDEAF6BB06B02D037
:100F0800006A41D0B16BB26BB36BB46B800E006EEC
:100F1800800EB419005C02E1B351140826E3800E78
:100F2800010A006E800EB019005C02E1AF51D808CA
:100F38001CE3010EC96F000ECA6FCB6FCC6F030E96
:100F4800CD6FE7DDAF4BB02B83A603D0B34BB42BEB
:100F58000BD0800E006E800EB419005C02E1B35114
:100F6800000802E2B36BB46BD1D7800EB019006EE3
:100F7800800E010A005C02E1D90EAF5D03E3020EA8
:080F8800006E01D0006A1200A6
:100F9000AFC566F5B0C567F5B1C568F5B4C54FF521
:0E0FA000B5C550F5B2C569F5B3C56DF51200C3
:100FAE000501C46BC56BC66BC76B5F51B05D02E1CB
:100FBE005E51AF5D01E2BDD1B0515D5D02E1AF5159
:100FCE005C5D01E2B6D15E51AF5D036E5F51B0590B
:100FDE00046E03C000F004C001F00036009001362C
:100FEE00003600900136080E5825C96F000E5921A3
:100FFE00CA6F000E5A21CB6F000E5B21CC6F0050D2
:10100E00C9270150CA23000ECB23CC23040ECD6F6B
:10101E00000ECE6F2ADD470EC26F050EC36FC2C51E
:10102E00E9FFC3C5EAFFEECFC8F5C8C5C4F5010E8A
:10103E00C225E96E000EC321EA6EEECF04F0000E5B
:10104E00056E066E076E020EC225E96E000EC321F6
:10105E00EA6EEECF03F003C001F0006A000E026EDE
:10106E00036E04500026055001220650022207503E
:10107E00032200505825B66F01505921B76F025008
:10108E005A21B86F03505B21B96FC8C500F000320A
:10109E00009E0032009E0032009E000E016E45C57D
:1010AE0004F046C505F059EC03F000C0BCF501C0D4
:1010BE00BDF5070EC815006E04E04551BC2746511C
:1010CE00BD23BCC5C0F5BDC5C1F543C5E1FF44C5D3
:1010DE00E2FFB6C5E6FFB7C5E6FFB8C5E6FFB9C580
:1010EE00E6FFBCC5E6FFBDC5E6FFBA0EE66E050E11
:1010FE00E66E41C500F042C501F006EC02F000C0FC
:10110E00C2F501C0C3F50501BA51B627BB51B723CD
:10111E00000EB823B923BA51BC5FBB51BD5BBE6B89
:10112E00BF6B5351000AD8A481D054C5B3F555C531
:10113E00B4F5B26B000E006E4651005C02E14551F3
:10114E00B25D6DE256C5C5F557C5C6F5B56BB16B4B
:10115E00C451B15D60E2B551000A4AE1BE4BBF2BEE
:10116E00C151BB5D02E1C051BA5D38E2BF51BB5DFA
:10117E0002E1BE51BA5D32E2010EBE6F000EBF6FCC
:10118E0043C5E1FF44C5E2FFB6C5E6FFB7C5E6FFBE
:10119E00B8C5E6FFB9C5E6FFBCC5E6FFBDC5E6FFAF
:1011AE00BA0EE66E050EE66E41C500F042C501F0C0
:1011BE0006EC02F000C0C2F501C0C3F5BCC5C0F517
:1011CE00BDC5C1F50501BA51B627BB51B723000EF7
:1011DE00B823B923BA51BC5FBB51BD5BC2C5E9FF91
:1011EE00C3C5EAFFEECFC7F5C24BC32B010EB56FD9
:1011FE00B551C715006E08E0C5C5E1F5B3C5E2F5FA
:10120E0051C5E3F581EC03F00501C54BC62BB5378F
:10121E00B591B12B9DD7B34BB42BB22B8BD7010EFF
:10122E00C525566F000EC621576F83D056C5B3F530
:10123E0057C5B4F5B26B000E006E4651005C02E16C
:10124E004551B25DD8B06FD054C5C5F555C5C6F57C
:10125E00B56BB16BC451B15D62E2B551000A4AE1A2
:10126E00BE4BBF2BC151BB5D02E1C051BA5D38E22E
:10127E00BF51BB5D02E1BE51BA5D32E2010EBE6FDF
:10128E00000EBF6F43C5E1FF44C5E2FFB6C5E6FFE2
:10129E00B7C5E6FFB8C5E6FFB9C5E6FFBCC5E6FFB4
:1012AE00BDC5E6FFBA0EE66E050EE66E41C500F050
:1012BE0042C501F006EC02F000C0C2F501C0C3F554
:1012CE00BCC5C0F5BDC5C1F50501BA51B627BB51A8
:1012DE00B723000EB823B923BA51BC5FBB51BD5B17
:1012EE00C2C5E9FFC3C5EAFFEECFC7F5C24BC32B9C
:1012FE00010EB56FB551C715006E08E0B3C5E1F527
:10130E00C5C5E2F551C5E3F581EC03F0010E05010B
:10131E00C55F000EC65BB537B591B12B9BD7B34BEE
:10132E00B42BB22B88D7010EC55D546F000EC65973
:04133E00556F1200D5
:1013420025D0090E0501C96F340ECA6F290ECB6F65
:101352003F0ECC6FB0C5CDF51BDC22D0310EC96F6C
:10136200340ECA6F470ECB6F3F0ECC6FB0C5CDF5B2
:101372000FDC16D04F0EC96F340ECA6F750ECB6FCD
:101382003F0ECC6FB0C5CDF503DC0AD00501AF51DD
:10139200010AD7E0AF51020AE1E0AF51030AEAE0E5
:0213A200120037
:1013A400AFC556F5B0C557F5B1C554F5B2C555F539
:0213B400120025
:1013B60022D0010E0501D76F030ED86F0A0ED96F22
:1013C600B0C5DAF5A8EC04F020D0010ED76F030EF5
:1013D600D86F190ED96FB0C5DAF5A8EC04F015D0A0
:1013E600010ED76F030ED86F280ED96FB0C5DAF588
:1013F600A8EC04F00AD00501AF51010ADAE0AF51BA
:0C140600020AE3E0AF51030AEBE0120021
:10141200A69CAFC5A9FFA69EA680A8CF00F0120089
:10142200800E0501B019006E800E005C02E1000E14
:10143200AF5D02E2AF6BB06B800E006E800EB01932
:10144200005C02E1AF517F0804E27F0EAF6F000E35
:10145200B06F800EB419006E800E005C02E1000EC7
:10146200B35D02E2B36BB46B800E006E800EB419F2
:10147200005C02E1B3517F0804E27F0EB36F000EFD
:10148200B46F800EB219006E800E005C02E1000E95
:10149200B15D02E2B16BB26B800E006E800EB219CA
:1014A200005C02E1B1513F0804E23F0EB16F000E51
:1014B200B26F800EB619006E800E005C02E1000E63
:1014C200B55D02E2B56BB66B800E006E800EB6198A
:1014D200005C02E1B5513F0804E23F0EB56F000E19
:1014E200B66FB151B55D016EB251B659026E01C00F
:1014F200B8F502C0B9F5AF51B35DBA6FB051B45986
:10150200BB6F800E0218006E800E005C02E1000EBE
:10151200015C0BE2B8510008B86FB951000EB9571F
:10152200FF0EBE6FFF0EBF6F04D0010EBE6F000E26
:10153200BF6F800EBB19006E800E005C02E1000ED0
:10154200BA5D0BE2BA510008BA6FBB51000EBB572D
:10155200FF0EBC6FFF0EBD6F04D0010EBC6F000EFC
:10156200BD6FB837B891B937BA37BA91BB37AFC583
:10157200E1F5B1C5E2F5B7C5E3F581EC03F0800E04
:101582000501B919006E800EBB19005C02E1BA5167
:10159200B85D3FE2BAC500F0BBC501F001320032CE
:1015A200019E01BC018E0050B85DC06F0150B95957
:1015B200C16F0501B051B41902E1B351AF1928E06E
:1015C200800EC119006E800E005C02E1000EC05D4B
:1015D20008E3BE51B127BF51B223BA51C05FBB511C
:1015E200C15BBC51AF25006EBD51B021016E00C080
:1015F200AFF501C0B0F5B851C027B951C12300C041
:10160200E1F5B1C5E2F5B7C5E3F581EC03F0D1D759
:101612003FD0B8C500F0B9C501F001320032019ED9
:1016220001BC018E00500501BA5DC06F0150BB596B
:10163200C16F0501B251B61902E1B551B11928E0E5
:10164200800EC119006E800E005C02E1000EC05DCA
:1016520008E3BC51AF27BD51B023B851C05FB951A7
:10166200C15BBE51B125006EBF51B221016E00C0F7
:10167200B1F501C0B2F5BA51C027BB51C123AFC504
:10168200E1F500C0E2F5B7C5E3F581EC03F0D1D78F
:02169200120044
:10169400B0C5B4F50501B451B25D0CE3AFC5D7F5DF
:1016A400B1C5D8F5B4C5D9F5B3C5DAF5A8EC04F0DD
:0616B400B42BF0D7120078
:1016BA000501B06BB16B9193D80EC96F010ECA6F59
:1016CA00000ECB6FCC6F020ECD6F8DEC05F0AF6BB9
:1016DA001E0EAF5D1AE28D80100E0D6E0D2EFED716
:1016EA0000008D90170E0C6E880E0D6E0D2EFED713
:1016FA000C2EFCD70000000081BA02D0D88001D09D
:10170A00D890D8B0B12BAF2BE3D7B1511408D8A0D9
:10171A00C6D0B16BD40EC96F010ECA6F1E0ECB6F45
:10172A00040ECC6FCD6BEEEC05F01A0E0B6E5E0E4E
:10173A000C6E6E0E0D6E0D2EFED70C2EFCD70B2ED8
:10174A00FAD70000CE0EC96F010ECA6F1E0ECB6FFC
:10175A00040ECC6F010ECD6FEEEC05F0E20EC96FF0
:10176A00040ECA6F000ECB6FCC6F010ECD6F8DECDD
:10177A0005F0B02B1A0E0B6E5E0E0C6E6E0E0D6E11
:10178A000D2EFED70C2EFCD70B2EFAD70000D80E42
:10179A00C96F010ECA6F000ECB6FCC6F030ECD6FEF
:1017AA008DEC05F01A0E0B6E5E0E0C6E6E0E0D6E43
:1017BA000D2EFED70C2EFCD70B2EFAD70000AF6BDE
:1017CA001E0EAF5D1AE28D80100E0D6E0D2EFED725
:1017DA0000008D90170E0C6E880E0D6E0D2EFED722
:1017EA000C2EFCD70000000081BA02D0D88001D0AC
:1017FA00D890D8B0B12BAF2BE3D7B151140813E36B
:10180A009183030E04014D6FB0C500F0000E016E06
:10181A00E20E046E040E056E59EC03F000C04BF4A0
:10182A0001C04CF43CD00501B16BD80EC96F010E52
:10183A00CA6F000ECB6FCC6F020ECD6F8DEC05F028
:10184A001A0E0B6E5E0E0C6E6E0E0D6E0D2EFED700
:10185A000C2EFCD70B2EFAD70000AF6B1E0EAF5D15
:10186A001AE28D80100E0D6E0D2EFED700008D909F
:10187A00170E0C6E880E0D6E0D2EFED70C2EFCD791
:10188A000000000081BA02D0D88001D0D890D8B028
:10189A00B12BAF2BE3D7B1511408D8B05FD70501EC
:1018AA0091A303D0010E006EDED1F00EC96F010EB6
:1018BA00CA6F1E0ECB6F040ECC6FCD6BEEEC05F02B
:1018CA001A0E0B6E5E0E0C6E6E0E0D6E0D2EFED780
:1018DA000C2EFCD70B2EFAD70000EA0EC96F010EA8
:1018EA00CA6F1E0ECB6F040ECC6F010ECD6FEEECDD
:1018FA0005F0C20EC96F030ECA6F000ECB6FCC6F14
:10190A00030ECD6F8DEC05F0DE0EC96F010ECA6FA6
:10191A001E0ECB6F040ECC6FCD6BEEEC05F01A0EDB
:10192A000B6E5E0E0C6E6E0E0D6E0D2EFED70C2E0D
:10193A00FCD70B2EFAD70000B00EC96F010ECA6F82
:10194A001E0ECB6F040ECC6F010ECD6FEEEC05F0C0
:10195A00E20E006E040E016EB0C504F0000E056EB4
:10196A0059EC03F000C0C9F501C0CAF5000E01BE6A
:10197A00FF0ECB6FCC6F010ECD6F8DEC05F01A0EFA
:10198A000B6E5E0E0C6E6E0E0D6E0D2EFED70C2EAD
:10199A00FCD70B2EFAD70000B06BB16BAF6B1E0EE3
:1019AA00AF5D1AE28D80100E0D6E0D2EFED700006F
:1019BA008D90170E0C6E880E0D6E0D2EFED70C2E06
:1019CA00FCD70000000081BA02D0D88001D0D8909C
:1019DA00D8B0B12BAF2BE3D7B1511408D8A0C7D0D8
:1019EA00B16BAA0EC96F010ECA6F1E0ECB6F040E21
:1019FA00CC6FCD6BEEEC05F01A0E0B6E5E0E0C6E14
:101A0A006E0E0D6E0D2EFED70C2EFCD70B2EFAD7AE
:101A1A000000A40EC96F010ECA6F1E0ECB6F040E12
:101A2A00CC6F010ECD6FEEEC05F0E20EC96F040E1D
:101A3A00CA6F000ECB6FCC6F010ECD6F8DEC05F027
:101A4A00B02B1A0E0B6E5E0E0C6E6E0E0D6E0D2EF8
:101A5A00FED70C2EFCD70B2EFAD70000D80EC96F72
:101A6A00010ECA6F000ECB6FCC6F020ECD6F8DECDC
:101A7A0005F01A0E0B6E5E0E0C6E6E0E0D6E0D2EAE
:101A8A00FED70C2EFCD70B2EFAD70000B16BAF6B2A
:101A9A001E0EAF5D1AE28D80100E0D6E0D2EFED752
:101AAA0000008D90170E0C6E880E0D6E0D2EFED74F
:101ABA000C2EFCD70000000081BA02D0D88001D0D9
:101ACA00D890D8B0B12BAF2BE3D7B151140813E398
:101ADA009183020E04014D6FB0C500F0000E016E35
:101AEA00E20E046E040E056E59EC03F000C04BF4CE
:101AFA0001C04CF43CD00501B16BD80EC96F010E80
:101B0A00CA6F000ECB6FCC6F030ECD6F8DEC05F054
:101B1A001A0E0B6E5E0E0C6E6E0E0D6E0D2EFED72D
:101B2A000C2EFCD70B2EFAD70000AF6B1E0EAF5D42
:101B3A001AE28D80100E0D6E0D2EFED700008D90CC
:101B4A00170E0C6E880E0D6E0D2EFED70C2EFCD7BE
:101B5A000000000081BA02D0D88001D0D890D8B055
:101B6A00B12BAF2BE3D7B1511408D8B05ED705011A
:101B7A0091A303D0010E006E76D0C80EC96F010E74
:101B8A00CA6F1E0ECB6F040ECC6FCD6BEEEC05F058
:101B9A001A0E0B6E5E0E0C6E6E0E0D6E0D2EFED7AD
:101BAA000C2EFCD70B2EFAD70000C20EC96F010EFD
:101BBA00CA6F1E0ECB6F040ECC6F010ECD6FEEEC0A
:101BCA0005F0C20EC96F030ECA6F000ECB6FCC6F41
:101BDA00020ECD6F8DEC05F0B60EC96F010ECA6FFD
:101BEA001E0ECB6F040ECC6FCD6BEEEC05F01A0E09
:101BFA000B6E5E0E0C6E6E0E0D6E0D2EFED70C2E3B
:101C0A00FCD70B2EFAD70000F70EC96F010ECA6F68
:101C1A001E0ECB6F040ECC6F010ECD6FEEEC05F0ED
:101C2A00E20E006E040E016EB0C504F0000E056EE1
:101C3A0059EC03F000C0C9F501C0CAF5000E01BE97
:101C4A00FF0ECB6FCC6F010ECD6F8DEC05F0D80E69
:101C5A00C96F010ECA6F000ECB6FCC6F030ECD6F2A
:081C6A008DEC05F0006A120088
:101C7200A6A202D00000FCD7A69CAFC5A9FFB0C5A2
:101C8200A8FFA69EA684F2CF00F0F29E550EA76E84
:101C9200AA0EA76EA68200BE02D0F29E01D0F28EDC
:041CA200A6941200F2
:101CA600AFC5EDF50501EE6BB0C5EFF544EC02F0FE
:021CB60012001A
:0C1CB800240E0D6E0D2EFED70000120051
:101CC40094908280949C828C829000EC02F000ECD0
:101CD40002F0828000EC02F0829C75C5E1FF76C5BB
:101CE400E2FF400EE66E73C500F074C501F006EC29
:101CF40002F075C5E1FF76C5E2FF0A0EE66E73C514
:101D040000F074C501F006EC02F075C5E1FF76C57C
:101D1400E2FF080EE66E73C500F074C501F006EC30
:101D240002F0828C00EC02F000EC02F000EC02F015
:021D340012009B
:101D360083B003D083B601D026D083A00BD0010E8A
:101D46000501C96F000ECA6FCB6FCC6F020ECD6F47
:101D56008DEC05F083A60BD00501010EC96F000EB0
:101D6600CA6FCB6FCC6F030ECD6F8DEC05F00501FE
:101D7600010EC96F000ECA6FCB6FCC6F010ECD6F0F
:081D86008DEC05F0D5D7120029
:101D8E000501B06BB16BB26BB36BAF51010A53E18E
:101D9E0083A00DD0010EC96F000ECA6FCB6FCC6F32
:101DAE00020ECD6F8DEC05F0B04BB12B0BD0800E2B
:101DBE00006E800EB119005C02E1B051000802E223
:101DCE00B06BB16B83A60DD0010EC96F000ECA6F3A
:101DDE00CB6FCC6F030ECD6F8DEC05F0B24BB32BEA
:101DEE000BD0800E006E800EB319005C02E1B25172
:101DFE00000802E2B26BB36B010EC96F000ECA6F20
:101E0E00CB6FCC6F010ECD6F8DEC05F0800EB1193E
:101E1E00006E800E005C02E1140EB05D0AE3800ECF
:101E2E00B319006E800E005C02E1140EB25D01E388
:101E3E0001D0AED752D083A00DD0010EC96F000EC7
:101E4E00CA6FCB6FCC6F030ECD6F8DEC05F0B04B20
:101E5E00B12B0BD0800E006E800EB119005C02E12A
:101E6E00B051000802E2B06BB16B83A60DD0010E2B
:101E7E00C96F000ECA6FCB6FCC6F020ECD6F8DEC9B
:101E8E0005F0B24BB32B0BD0800E006E800EB31943
:101E9E00005C02E1B251000802E2B26BB36B010EBC
:101EAE00C96F000ECA6FCB6FCC6F040ECD6F8DEC69
:101EBE0005F0800EB119006E800E005C02E1140E6A
:101ECE00B05D0AE3800EB319006E800E005C02E175
:0C1EDE00140EB25D01E301D0AED712007B
:101EEA0038D01A0E0501D76F1C0ED86F0C0ED96F99
:101EFA00B0C5DAF5A8EC04F03CD01A0ED76F1C0E68
:101F0A00D86F140ED96FB0C5DAF5A8EC04F031D049
:101F1A001A0ED76F1C0ED86F1C0ED96FB0C5DAF522
:101F2A00A8EC04F026D01A0ED76F1C0ED86F240E18
:101F3A00D96FB0C5DAF5A8EC04F01BD01A0ED76F2A
:101F4A001C0ED86F2C0ED96FB0C5DAF5A8EC04F0C8
:101F5A0010D00501AF51010AC4E0AF51020ACDE029
:101F6A00AF51030AD5E0AF51040ADDE0AF51050ACB
:041F7A00E5E012008C
:101F7E000501B76BB86BB96B0101A351000A0EE1F5
:101F8E00380E0501C96F600ECA6F000ECB6F010EC1
:101F9E00CC6FCD6BDAEC04F0010EA36F000E006E69
:101FAE0005015F51005C02E15E51AF5D01E2EAD0D6
:101FBE00000E5D5D02E1AF515C5D01E2E3D05E516A
:101FCE00AF5D016E5FC502F0000E025601C003F058
:101FDE0002C004F003360390043603360390043631
:101FEE00080E6A25006E000E6B21016E000E6C212C
:101FFE00026E000E056E00500326015004220250A0
:10200E00052203C0F6FF04C0F7FF05C0F8FF090064
:10201E00F5CFB7F5010E0324F66E000E0420F76E11
:10202E00000E0520F86E0900F5CF00F000C006F096
:10203E00000E076E086E096E020E0324F66E000E79
:10204E000420F76E000E0520F86E0900F5CF03F0A0
:10205E0003C001F0006A000E026E036E06500026E9
:10206E000750012208500222095003226A5100240F
:10207E00B46F6B510120B56F6C510220B66F535186
:10208E00000A41E154C5B2F5B16B000E006E465127
:10209E00005C02E14551B15D2FE256C5B8F5B36B58
:1020AE00B06BB751B05D25E2B351000A10E1B4C573
:1020BE00F6FFB5C5F7FFB6C5F8FF0900F5CFB9F5C0
:1020CE00010EB427000EB523B623010EB36FB35124
:1020DE00B915006E08E0B8C5E1F5B2C5E2F551C517
:1020EE00E3F581EC03F00501B82BB337B391B02BB8
:1020FE00D8D7B22BB12BC9D7B851010F566F576B2A
:10210E00000E57233FD056C5B2F5B16B000E006ED0
:10211E004651005C02E14551B15D2FE254C5B8F560
:10212E00B36BB06BB751B05D25E2B351000A10E14D
:10213E00B4C5F6FFB5C5F7FFB6C5F8FF0900F5CF74
:10214E00B9F5010EB427000EB523B623010EB36FF9
:10215E00B351B915006E08E0B2C5E1F5B8C5E2F5A8
:10216E0051C5E3F581EC03F00501B807B337B39120
:10217E00B02BD8D7B22BB12BC9D7B805546F556B2E
:06218E00000E555B12007B
:10219400086A080E0C6E003408360450085ED8B085
:0E21A40002D00826D89000360C2EF5D7120077
:1021B2009DC5E9FF9EC5EAFFEE520EE09DC5E9FF0F
:1021C2009EC5EAFFEECFAFF50501B06B8DDE9DC572
:1021D200E1FF9EC5E2FFE66A05019CC5AFF5020E6E
:0621E200B06F82DE120066
:1021E80005019C530AE09DC5E9FF9EC5EAFF9DC510
:1021F800E1FF9EC5E2FFE62A09D09DC5E9FF9EC51D
:10220800EAFF9DC5E1FF9EC5E2FFE6069DC5E9FF21
:102218009EC5EAFFEE50050A06E19DC5E1FF9EC591
:10222800E2FF010EE66E9DC5E9FF9EC5EAFFEE508E
:10223800000A06E19DC5E1FF9EC5E2FF040EE66EB9
:02224800120082
:10224A00A00E0501C96F020ECA6F1E0ECB6F040ED7
:10225A00CC6F010ECD6FEEEC05F04FD09C51010A08
:10226A000DE1970EC96F020ECA6F2D0ECB6F040EC9
:10227A00CC6F010ECD6FEEEC05F00CD0AC0EC96F31
:10228A00020ECA6F2D0ECB6F040ECC6F010ECD6FEE
:10229A00EEEC05F038D027D0A30EC96F020ECA6F34
:1022AA002D0ECB6F040ECC6F010ECD6FEEEC05F048
:1022BA0023D0C50EC96F030ECA6F2D0ECB6F040E45
:1022CA00CC6F010ECD6FEEEC05F016D0E30EC96FA0
:1022DA00030ECA6F2D0ECB6F040ECC6F010ECD6F9D
:1022EA00EEEC05F009D09C51000AD6E09C51020A96
:1022FA00E0E09C51030AEAE006D09D51000AAEE0F4
:08230A009D51010AC8E0120018
:10231200000E0501A11902E1000EA01909E19CC5F8
:10232200E1F59EC5E2F5A2C5E3F581EC03F06FD1BC
:102332000501A76BA86BAB6BAC6B9C519E5DA96F43
:102342009D519F59AA6FA0C5A5F5A1C5A6F5A0C527
:10235200ADF5A1C5AEF5A0C500F0A1C501F00036EE
:102362000090013600C0A3F501C0A4F50050030897
:10237200A36F01C0A4F5000EA457010EA525016E9E
:10238200000EA621026E800EA819006E800E0218A1
:10239200005C02E10150A75DD8B0DFD0A7519C25B7
:1023A200006EA8519D21016E00C0AFF501C0B0F5CD
:1023B200A5519E25B16FA6519F21B26F00C0B3F502
:1023C20001C0B4F5A5519E5DB56FA6519F59B66F78
:1023D200A2C5B7F511EC0AF0800E006E800E050161
:1023E200A819005C02E1A75100081EE2A7519C5DFA
:1023F200006EA8519D59016E00C0AFF501C0B0F545
:10240200A5519E25B16FA6519F21B26F00C0B3F5B1
:1024120001C0B4F5A5519E5DB56FA6519F59B66F27
:10242200A2C5B7F511EC0AF00501AE51A61902E1F9
:10243200A551AD1952E0AD519E25006EAE519F21BE
:10244200016EA951005EAA51015A00C0AFF501C048
:10245200B0F5AB519E25B16FAC519F21B26F00C058
:10246200B3F501C0B4F5AB519E5DB56FAC519F5948
:10247200B66FA2C5B7F511EC0AF0800E006E800EA1
:102482000501AE19005C02E1AD51000822E2AD5136
:102492009E5D006EAE519F59016EA951005EAA5118
:1024A200015A00C0AFF501C0B0F5AB519E25B16F26
:1024B200AC519F21B26F00C0B3F501C0B4F5AB516E
:1024C2009E5DB56FAC519F59B66FA2C5B7F511ECC1
:1024D2000AF0A5C5ADF5A6C5AEF5800E0501A41995
:1024E200006E800E005C02E1000EA35D13E2A7C540
:1024F20000F0A8C501F000360090013600360090C9
:102502000136060E0026000E01220050A3270150BC
:10251200A42320D0A551A75D036EA651A859046E2D
:1025220003C000F004C001F000360090013600360E
:10253200009001360A0E0026000E01220050A32749
:102542000150A423010EA55F000EA65BA7C5ABF543
:10255200A8C5ACF5A74BA82B10D7010EA75D016E3D
:10256200000EA859026E0250AE1902E1AD510118D7
:102572004EE0AD519E25006EAE519F21016EA951D4
:10258200005EAA51015A00C0AFF501C0B0F5AB51CF
:102592009E25B16FAC519F21B26F00C0B3F501C04F
:1025A200B4F5AB519E5DB56FAC519F59B66FA2C5E4
:1025B200B7F511EC0AF0800E006E800E0501AE191F
:1025C200005C02E1AD51000822E2AD519E5D006E59
:1025D200AE519F59016EA951005EAA51015A00C025
:1025E200AFF501C0B0F5AB519E25B16FAC519F2143
:1025F200B26F00C0B3F501C0B4F5AB519E5DB56FCB
:10260200AC519F59B66FA2C5B7F511EC0AF0120092
:10261200FF0E0501796FFF0E7A6FFF0E7B6FFF0EC3
:0E2622007C6FC26A070EC012C08EC28012000A
:10263000C69AEE0E0501736F030E746FF00E756F80
:10264000050E766FFF0E606FFF0E616FFF0E626FFB
:10265000FF0E636F949A94969488C66A400EC76E74
:04266000C68A120014
:102664000FD005019C6B4F0E9D6F14D0500E9C6FC4
:102674009F0E9D6F0FD0A00E9C6FE90E9D6F0AD028
:1026840005014051010AEDE04051020AEFE04051DA
:10269400030AF1E09E6B9E513F5DD8A0BFEF18F096
:1026A400030E026E9EC500F0000E016E025005E09E
:1026B400003600900136FF0FFAD74F0E0024E96E62
:1026C400040E0120EA6EEECF00F0050E046E60DD0C
:1026D40008C000F00050000AD8A400D29E51000A9D
:1026E40058E1030E026E9EC500F0000E016E02500A
:1026F40005E0003600900136FF0FFAD74F0E002494
:10270400E96E040E0120EA6EEECF01F001500A0AD0
:1027140040E19CC5AFF5B06B39EC0EF005019C2B84
:10272400030E0B6E8A0E0C6E550E0D6E0D2EFED71B
:102734000C2EFCD70B2EFAD7000000009CC5AFF579
:10274400B40EB06F39EC0EF005019C2B030E0B6E2A
:102754008A0E0C6E550E0D6E0D2EFED70C2EFCD768
:102764000B2EFAD7000000009CC5AFF5B06B39EC16
:102774000EF005019C2B030E0B6E8A0E0C6E550E8B
:102784000D6E0D2EFED70C2EFCD70B2EFAD70000A3
:102794000000030E026E9EC500F0000E016E025092
:1027A40005E0003600900136FF0FFAD74F0E0026E1
:1027B400040E0122060E0024E96E000E0120EA6ECA
:1027C400EECF01F0EECF02F0800E0218006E800E04
:1027D400005C02E13F0E015C44E39CC5AFF5FF0ED3
:1027E400B06F39EC0EF005019C2B030E0B6E8A0EB4
:1027F4000C6E550E0D6E0D2EFED70C2EFCD70B2E27
:10280400FAD700000000030E026E9EC500F0000E11
:10281400016E025005E0003600900136FF0FFAD732
:102824004F0E0026040E0122060E0024026E000E36
:102834000120036E02C0E9FF03C0EAFF3F0EEE5C15
:10284400006E000EEE58016E02C0E1FF03C0E2FF0D
:1028540000C0E6FF01C0E6FF9C519D1901E101D0D3
:1028640098D7030E026E9EC500F0000E016E025052
:1028740005E0003600900136FF0FFAD74F0E002610
:10288400040E0122060E0024E96E000E0120EA6EF9
:10289400EECF00F0EECF01F00050011034E09CC503
:1028A400AFF5030E026E9EC500F0000E016E0250DD
:1028B40005E0003600900136FF0FFAD705014F0EF0
:1028C4000026040E0122060E0024D96E000E0120FB
:1028D400DA6EDE50C00FB06F39EC0EF005019C2BA0
:1028E400030E0B6E8A0E0C6E550E0D6E0D2EFED75A
:1028F4000C2EFCD70B2EFAD7000000009C519D191A
:1029040002E1BFEF18F0030E026E9EC500F0000E48
:10291400016E025005E0003600900136FF0FFAD731
:102924004F0E0026040E0122010E0024E96E000E53
:102934000120EA6EEECF00F0005233E09CC5AFF503
:10294400030E026E9EC500F0000E016E025005E0FB
:10295400003600900136FF0FFAD705014F0E00260E
:10296400040E0122010E0024D96E000E0120DA6E3D
:10297400DE50900FB06F39EC0EF005019C2B030E66
:102984000B6E8A0E0C6E550E0D6E0D2EFED70C2E90
:10299400FCD70B2EFAD7000000009C519D1901E1D1
:1029A400ECD3030E026E9EC500F0000E016E0250C1
:1029B40005E0003600900136FF0FFAD74F0E0026CF
:1029C400040E0122020E0024E96E000E0120EA6EBC
:1029D400EECF00F0005233E09CC5AFF5030E026E5B
:1029E4009EC500F0000E016E025005E00036009016
:1029F4000136FF0FFAD705014F0E0026040E0122FF
:102A0400020E0024D96E000E0120DA6EDE50800F13
:102A1400B06F39EC0EF005019C2B030E0B6E8A0E81
:102A24000C6E550E0D6E0D2EFED70C2EFCD70B2EF4
:102A3400FAD7000000009C519D1901E19ED3030EBA
:102A4400026E9EC500F0000E016E025005E00036D5
:102A540000900136FF0FFAD74F0E0026040E012214
:102A6400030E0024E96E000E0120EA6EEECF00F0A2
:102A7400005233E09CC5AFF5030E026E9EC500F014
:102A8400000E016E025005E0003600900136FF0F83
:102A9400FAD705014F0E0026040E0122030E00246E
:102AA400D96E000E0120DA6EDE50A00FB06F39EC43
:102AB4000EF005019C2B030E0B6E8A0E0C6E550E48
:102AC4000D6E0D2EFED70C2EFCD70B2EFAD7000060
:102AD40000009C519D1901E150D34BD305019E0583
:102AE400036E046A000E045A030E026E03C000F063
:102AF40004C001F0025005E0003600900136FF0FDB
:102B0400FAD705014F0E0024E96E040E0120EA6E87
:102B1400EECF00F000500A0A010ED8A4000E056E94
:102B24009E51010F036E046A000E0422030E026E0E
:102B340003C000F004C001F0025005E0003600902C
:102B44000136FF0FFAD74F0E0024E96E040E012060
:102B5400EA6EEECF01F001500A0A010ED8A4000E6D
:102B6400006E0550001AD8B4F3D0030E026E9EC551
:102B740000F0000E016E025005E0003600900136B0
:102B8400FF0FFAD74F0E0024E96E040E0120EA6EFF
:102B9400EECF01F00150060A16E1030E026E9EC547
:102BA40000F0000E016E025005E000360090013680
:102BB400FF0FFAD74F0E0024E16E040E0120E26EDF
:102BC400090EE66E15D0030E026E9EC500F0000ECF
:102BD400016E025005E0003600900136FF0FFAD76F
:102BE4004F0E0024E16E040E0120E26E060EE66E26
:102BF400030E026E9EC500F0000E016E025005E049
:102C0400003600900136FF0FFAD74F0E0026040E4F
:102C14000122030E0024E96E000E0120EA6EEECFBD
:102C240000F000524DE0030E026E9EC500F0000E4F
:102C3400016E025005E0003600900136FF0FFAD70E
:102C44004F0E0026040E0122030E0024026E000E15
:102C54000120036E02C0D9FF03C0DAFFDE5015085D
:102C6400006E02C0E1FF03C0E2FF00C0E6FF030EF6
:102C7400026E9EC500F0000E016E025005E00036A3
:102C840000900136FF0FFAD74F0E0026040E0122E2
:102C9400040E0024026E000E0120036E02C0E9FF40
:102CA40003C0EAFF040EEE24006E000EEE20016E57
:102CB40002C0E1FF03C0E2FF00C0E6FF01C0E6FF7F
:102CC400030E026E9EC500F0000E016E025005E078
:102CD400003600900136FF0FFAD74F0E0026040E7F
:102CE4000122040E0024E96E000E0120EA6EEECFEC
:102CF40000F0EECF01F0005001102AE0030E026E46
:102D04009EC500F0000E016E025005E000360090F2
:102D14000136FF0FFAD74F0E0026040E0122040ECF
:102D24000024026E000E0120036E02C0D9FF03C00E
:102D3400DAFFDE50B408006EDECF01F0000E01565B
:102D440002C0E1FF03C0E2FF00C0E6FF01C0E6FFEE
:102D5400030E026E9EC500F0000E016E025005E0E7
:102D6400003600900136FF0FFAD74F0E0024E96EAB
:102D7400040E0120EA6EEECF01F00150060AD8A439
:102D8400D4D0030E026E9EC500F0000E016E0250F8
:102D940005E0003600900136FF0FFAD74F0E0026EB
:102DA400040E0122040E0024E96E000E0120EA6ED6
:102DB400EECF00F0EECF01F00050011067E0050106
:102DC400030E9C25016E026A000E0222000E0218F8
:102DD40002E19D51011801E1D0D19CC5AFF5400E2F
:102DE400B06F39EC0EF005019C2B030E0B6E8A0EAE
:102DF4000C6E550E0D6E0D2EFED70C2EFCD70B2E21
:102E0400FAD7000000009CC5AFF5030E026E9EC504
:102E140000F0000E016E025005E00036009001360D
:102E2400FF0FFAD74F0E0026040E0122040E0024D1
:102E3400E96E000E0120EA6EEECFB0F539EC0EF02B
:102E440005019C2B030E0B6E8A0E0C6E550E0D6E37
:102E54000D2EFED70C2EFCD70B2EFAD70000000047
:102E64009CC5AFF5400EB06F39EC0EF005019C2BFC
:102E7400030E0B6E8A0E0C6E550E0D6E0D2EFED7C4
:102E84000C2EFCD70B2EFAD700000000030E026EA6
:102E94009EC500F0000E016E025005E00036009061
:102EA4000136FF0FFAD74F0E0026040E0122030E3F
:102EB4000024E96E000E0120EA6EEECF00F000520D
:102EC40033E09CC5AFF5030E026E9EC500F0000E04
:102ED400016E025005E0003600900136FF0FFAD76C
:102EE40005014F0E0026040E0122030E0024D96EA4
:102EF400000E0120DA6EDE50600FB06F39EC0EF078
:102F040005019C2B030E0B6E8A0E0C6E550E0D6E76
:102F14000D2EFED70C2EFCD70B2EFAD70000000086
:102F24009C519D1901E129D124D1030E026E9EC545
:102F340000F0000E016E025005E0003600900136EC
:102F4400FF0FFAD74F0E0026040E0122040E0024B0
:102F5400E96E000E0120EA6EEECF00F0EECF01F034
:102F64000050011065E00501030E9C25016E026A04
:102F7400000E0222000E021802E19D51011801E127
:102F8400FCD09CC5AFF5B06B39EC0EF005019C2B61
:102F9400030E0B6E8A0E0C6E550E0D6E0D2EFED7A3
:102FA4000C2EFCD70B2EFAD7000000009CC5AFF501
:102FB400030E026E9EC500F0000E016E025005E085
:102FC400003600900136FF0FFAD74F0E0026040E8C
:102FD4000122040E0024E96E000E0120EA6EEECFF9
:102FE400B0F539EC0EF005019C2B030E0B6E8A0E26
:102FF4000C6E550E0D6E0D2EFED70C2EFCD70B2E1F
:10300400FAD7000000009CC5AFF5B06B39EC0EF0A8
:1030140005019C2B030E0B6E8A0E0C6E550E0D6E65
:103024000D2EFED70C2EFCD70B2EFAD70000000075
:10303400030E026E9EC500F0000E016E025005E004
:10304400003600900136FF0FFAD74F0E0026040E0B
:103054000122030E0024E96E000E0120EA6EEECF79
:1030640000F0005234E09CC5AFF5030E026E9EC51D
:1030740000F0000E016E025005E0003600900136AB
:10308400FF0FFAD705014F0E0026040E0122030E8E
:103094000024D96E000E0120DA6EDE50200FB06FCE
:1030A40039EC0EF005019C2B030E0B6E8A0E0C6E90
:1030B400550E0D6E0D2EFED70C2EFCD70B2EFAD707
:1030C400000000009C519D1901E157D052D0030E1D
:1030D400026E9EC500F0000E016E025005E000363F
:1030E40000900136FF0FFAD74F0E0026040E01227E
:1030F400030E0024E96E000E0120EA6EEE50000A71
:1031040038E1030E026E9EC500F0000E016E0250FF
:1031140005E0003600900136FF0FFAD74F0E002667
:10312400040E0122040E0024E96E000E0120EA6E52
:10313400EECF01F0EECF02F0000E021802E1000E15
:10314400011817E105019CC5AFF5B06B39EC0EF021
:1031540005019C2B030E0B6E8A0E0C6E550E0D6E24
:103164000D2EFED70C2EFCD70B2EFAD70000000034
:1031740004D005019E2B4DEF13F09C51000A06E18B
:103184009DC5AFF5B06B39EC0EF007D09DC5AFF51A
:0C31940005019C05B06F39EC0EF0120034
:1031A000000E05019E5D02E1800E9D5D01E320D0D1
:1031B000000EA05D02E1400E9F5D01E319D09DC5A8
:1031C000AFF59EC5B0F59FC5B1F5A0C5B2F5D2EC7F
:1031D00009F00101A25308E09CC5AFF5000E0501FE
:1031E000B06FD7EC07F004D09CC5AFF5BFEC0FF083
:0231F0001200CB
:1031F2009CC565F59CC5AFF562EC0EF065C5E9F5B9
:103202000501EA6BA4EC02F065C5AFF50501B06BF0
:1032120053EC0EF065C5EBF5220E0501EC6F7BEC6D
:1032220002F065C5E9F53F0E0501EA6FADEC02F06B
:103232008AEC02F065C5E9F5C00E0501EA6FADEC56
:1032420002F08AEC02F065C5EBF5210E0501EC6F88
:103252007BEC02F065C5E9F53F0E0501EA6FADECC6
:1032620002F08AEC02F065C5E9F5C00E0501EA6FCD
:10327200ADEC02F08AEC02F0050E0501696F070E53
:103282006D6F010E666F700E676F000E686F200E15
:083292004F6F000E506F120097
:10329A000501A16BA26B9392959295948B848B8274
:1032AA0009D08C848C920FD08C848C820CD08C9414
:1032BA008C9209D0A051010AF4E0A051020AF4E06C
:1032CA00A051030AF4E004014E9105019C519D119D
:1032DA009E119F11D8B4DBD08A820A0E0C6EBC0EE6
:1032EA000D6E0D2EFED70C2EFCD700008A928D8013
:1032FA00100E0D6E0D2EFED700008D900A0E0C6E6C
:10330A00BC0E0D6E0D2EFED70C2EFCD7000081BA16
:10331A0002D0D88001D0D890D8A0A7D00501A12B7F
:10332A00A151070AD8A47DD004014EB102D0D88099
:10333A0001D0D890D8A075D0670ED76E690ED66E18
:10334A00F2940501A151000869E28D80100E0D6EFC
:10335A000D2EFED700008D90070E0C6E7D0E0D6EA1
:10336A000D2EFED70C2EFCD781AA02D0A10702D0BF
:10337A00050EA16FF2A451D0A22B670ED76E690E6B
:10338A00D66EF294050EA25D48E35DEC0BF0005296
:10339A0028E004014E81C20E0501C96F000ECA6FF2
:1033AA001E0ECB6F040ECC6FCD6BEEEC05F01A0E31
:1033BA000B6E5E0E0C6E6E0E0D6E0D2EFED70C2E63
:1033CA00FCD70B2EFAD70000BC0EC96F000ECA6FCD
:1033DA001E0ECB6F040ECC6F010ECD6FEEEC05F016
:1033EA001BD0050EA16FA151000816E28D80100EA8
:1033FA000D6E0D2EFED700008D90070E0C6E7D0E01
:10340A000D6E0D2EFED70C2EFCD781AA02D0A10775
:10341A0002D0050EA16FE7D701D093D78C848C9286
:10342A0023D00501A151070A1FE104014EA11CD0B6
:10343A00050E0501A16FA151000816E28D80100E3C
:10344A000D6E0D2EFED700008D90070E0C6E7D0EB0
:10345A000D6E0D2EFED70C2EFCD781AA02D0A10725
:10346A0002D0050EA16FE7D702D00501A16B040EA9
:10347A000C6E2D0E0D6E05010D2EFDD70C2EFBD7F1
:10348A00010E9C5F000E9D5B9E5B9F5B1ED7040135
:10349A004EA13CD0D80E0501C96F010ECA6F000EAD
:1034AA00CB6FCC6F4DC4CDF58DEC05F04BC4C9F58F
:1034BA004CC4CAF5000E04014CBFFF0E0501CB6FC8
:1034CA00CC6F010ECD6F8DEC05F004014D51020A4F
:1034DA000DE1D80E0501C96F010ECA6F000ECB6F40
:1034EA00CC6F030ECD6F8DEC05F00CD00501D80E14
:1034FA00C96F010ECA6F000ECB6FCC6F020ECD6F73
:10350A008DEC05F004014E914B6B4C6B93829582C6
:08351A0095848B948B92120042
:10352200380E0501AF6F590EB06F000EB16F080E65
:10353200B26F070EB36F200EB46F000EB56FC8ECFA
:1035420007F0040EC96F040ECA6F190ECB6FCC6B55
:10355200010ECD6FEEEC05F0170EAF6F6E0EB06F71
:10356200000EB16F050EB26F070EB36F200EB46F6F
:10357200000EB56FC8EC07F0130EC96F030ECA6FC9
:10358200190ECB6F010ECC6F010ECD6FEEEC05F074
:103592003F0EAF6F180EB06F440EB16F1E0EB26FBA
:1035A200B36B4AEC0BF0240EC96F030ECA6F2D0EDB
:1035B200CB6F040ECC6F010ECD6FEEEC05F080A840
:1035C20001D0FDD7EB0EC96F020ECA6F2D0ECB6F65
:0E35D200040ECC6F010ECD6FEEEC05F0120072
:1035E000000E05019F5D02E1800E9E5D01E33ED06D
:1035F000000EA15D02E1400EA05D01E337D0A26B99
:10360000A36B9EC5AFF59FC5B0F5A0C5B1F5A1C52B
:10361000B2F5D2EC09F0A2519C25E96EA3519D218F
:10362000EA6EEE5223E00101A25312E00501A2511D
:103630009C25E96EA3519D21EA6EEECFAFF5000EF9
:10364000B06F000EB06FD7EC07F0A24BA32B0DD0DC
:103650000501A2519C25E96EA3519D21EA6EEECF92
:0E366000AFF5BFEC0FF0A24BA32BD5D7120095
:10366E0005014051010A05E1F00E9D6F000E9E6F9F
:10367E000FD04051020A05E1F10E9D6F000E9E6FB4
:10368E0007D04051030A04E1F20E9D6F000E9E6FAB
:10369E009DC5AFF509EC0AF000C08CF59C5322E0F5
:1036AE009251020A05E18C338C9F8C338C9F17D07C
:1036BE009251030A09E18C338C9F8C338C9F8C338F
:1036CE008C9F8C338C9F0BD09251040A08E1060E0E
:1036DE00006E005004E08C338C9FFF0FFBD7030E5F
:1036EE008C1717D09251010A03E1FC0E8C1711D0E2
:1036FE009251020A03E1F30E8C170BD09251030A7A
:10370E0003E1CF0E8C1705D09251040A02E13F0E51
:04371E008C171200F2
:103722000501A06BA16BA26BA05107084BE3E76BED
:1037320035EC03F0A0C5E7F5BDEC02F00501E76B3F
:10374200D0EC02F005019F6B9F513F0813E3A1519A
:103752009C25F66EA2519D21F76E000E9E21F86EF9
:103762000900F5CFE7F5EAEC02F00501A14BA22B27
:103772009F2BEAD7400EE76F35EC03F0A0C5E7F5C3
:10378200BDEC02F0400E0501E76FD0EC02F0400EF6
:1037920005019F6F9F517F0813E3A1519C25F66E8F
:1037A200A2519D21F76E000E9E21F86E0900F5CF01
:1037B200E7F5EAEC02F00501A14BA22B9F2BEAD719
:0637C200A02BB2D712009B
:1037C80005019C6B9392959295948B848B82830EC2
:1037D800C96F010ECA6F190ECB6F020ECC6F010EA6
:1037E800CD6FEEEC05F01A0E0B6E5E0E0C6E6E0EC3
:1037F8000D6E0D2EFED70C2EFCD70B2EFAD700001F
:1038080004EC07F000C09CF51A0E0B6E5E0E0C6EF1
:103818006E0E0D6E0D2EFED70C2EFCD70B2EFAD782
:1038280000009C51020A3DE1530EC96F010ECA6F98
:10383800190ECB6F020ECC6F010ECD6FEEEC05F0BA
:10384800470EC96F010ECA6F190ECB6F040ECC6FED
:10385800010ECD6FEEEC05F08C8880A801D0FDD765
:1038680080B802D0D88001D0D89001E3F9D78C98DD
:10387800770EC96F010ECA6F190ECB6F020ECC6F8F
:10388800010ECD6FEEEC05F06B0EC96F010ECA6F1D
:10389800190ECB6F040ECC6F010ECD6FEEEC05F058
:1038A8001ED09C51000A1BE15F0EC96F010ECA6F42
:1038B800190ECB6F020ECC6F010ECD6FEEEC05F03A
:1038C8001A0E0B6E5E0E0C6E6E0E0D6E0D2EFED762
:1038D8000C2EFCD70B2EFAD700009BEC0EF0860EB0
:1038E8000501C96F000ECA6F190ECB6F020ECC6F9F
:1038F800010ECD6FEEEC05F01A0E0B6E5E0E0C6E1F
:103908006E0E0D6E0D2EFED70C2EFCD70B2EFAD791
:103918000000010EAF6FC7EC0EF07A0EC96F000EF3
:10392800CA6F190ECB6F020ECC6F010ECD6FEEEC85
:1039380005F01A0E0B6E5E0E0C6E6E0E0D6E0D2ED1
:10394800FED70C2EFCD70B2EFAD70000C20EC96F7B
:10395800030ECA6F000ECB6FCC6F020ECD6F8DECCD
:1039680005F06E0EC96F000ECA6F190ECB6F020EEE
:10397800CC6F010ECD6FEEEC05F01A0E0B6E5E0EDD
:103988000C6E6E0E0D6E0D2EFED70C2EFCD70B2E68
:10399800FAD70000010EAF6FC7EC0EF09382958244
:0839A80095848B948B921200B0
:1039B000F2A432D09DC5E9FF9EC5EAFFEE5210E0A9
:1039C000200E0501D76F3F0ED86F030ED96F010E81
:1039D000DA6F10EC04F09DC5E1FF9EC5E2FFE66AD8
:1039E0003A0E0501D76F730ED86F010ED96F020E14
:1039F000DA6F10EC04F0300E05019C25D76F3F0EF6
:103A0000D86F030ED96F020EDA6F10EC04F0EC0ED3
:0A3A1000D76ED00ED66EF2941200AD
:103A1A009DC5E9FF9EC5EAFFEE520FE09DC5E9FF8D
:103A2A009EC5EAFFEECFAFF50501B06BA1EC09F038
:103A3A009DC5E1FF9EC5E2FFE66A05019CC5AFF59B
:0A3A4A00020EB06FA1EC09F01200AB
:103A540065C5EBF574EC02F0FE0E00140501EC6F85
:103A6400EC8365C5EBF57BEC02F005019D6B080E5C
:103A74009D5D12E29DC5E7F5BDEC02F005019E6B6C
:103A8400400E9E5D07E29CC5E7F5EAEC02F00501F5
:103A94009E2BF6D79D2BEBD765C5EBF574EC02F0A6
:103AA400FD0E00140501EC6FEC8165C5EBF57BECB4
:103AB40002F005019D6B080E9D5D12E29DC5E7F5C0
:103AC400BDEC02F005019E6B400E9E5D07E29CC5B5
:103AD400E7F5EAEC02F005019E2BF6D79D2BEBD718
:023AE4001200CE
:103AE60005019C51040A0FE10201EA51010A04E1B1
:103AF600EA6B05019C6B06D0010E0201EA6F010E0E
:103B060005019C6F02D09CC5EAF29251020A05E1BA
:103B16009C379C919C379C9117D09251030A09E1DE
:103B26009C379C919C379C919C379C919C379C918F
:103B36000BD09251040A08E1060E006E005004E014
:103B46009C379C91FF0FFBD78C519C134051010A67
:103B560005E1F00E9D6F000E9E6F0FD04051020AD8
:103B660005E1F10E9D6F000E9E6F07D04051030ACE
:103B760004E1F20E9D6F000E9E6F9DC5AFF59CC5CC
:103B8600B0F539EC0EF0820E0C6EDD0E0D6E0D2EBC
:103B9600FED70C2EFCD700000000EAC28CF51200FE
:103BA6009DC5E9FF9EC5EAFFEE520FE09DC5E9FF00
:103BB6009EC5EAFFEECFAFF50501B06BDBEC09F071
:103BC6009DC5E1FF9EC5E2FFE66A05019CC5AFF50E
:0A3BD600020EB06FDBEC09F01200E4
:103BE000380E0501AF6F590EB06F000EB16F080EA1
:103BF000B26F070EB36F200EB46F000EB56FC8EC36
:103C000007F09C51000A0CE1B80EC96F030ECA6F91
:103C1000190ECB6FCC6B010ECD6FEEEC05F00BD017
:103C2000880EC96F030ECA6F190ECB6FCC6B010ED5
:103C3000CD6FEEEC05F0170EAF6F6E0EB06F000E8D
:103C4000B16F050EB26F070EB36F200EB46F000E8A
:103C5000B56FC8EC07F03F0EAF6F180EB06F440E93
:0E3C6000B16F1E0EB26FB36B4AEC0BF0120088
:103C6E0065D0530E0501C96F020ECA6F190ECB6FC8
:103C7E00010ECC6F010ECD6FEEEC05F0850EC96F07
:103C8E00020ECA6F190ECB6F020ECC6F010ECD6FE6
:103C9E00EEEC05F058D0740EC96F020ECA6F190EF5
:103CAE00CB6F010ECC6F010ECD6FEEEC05F0240E36
:103CBE00C96F020ECA6F190ECB6F020ECC6F010EBA
:103CCE00CD6FEEEC05F03FD0130EC96F020ECA6F2A
:103CDE00190ECB6F010ECC6F010ECD6FEEEC05F011
:103CEE00420EC96F020ECA6F190ECB6F020ECC6F49
:103CFE00010ECD6FEEEC05F026D0330EC96F020E1D
:103D0E00CA6F190ECB6F010ECC6F010ECD6FEEEC9C
:103D1E0005F0B70EC96F020ECA6F190ECB6F020EE9
:103D2E00CC6F010ECD6FEEEC05F00DD005019C5160
:103D3E00010A97E09C51020AAEE09C51030AC4E0CE
:083D4E009C51040ADAE01200A6
:103D5600380E0501AF6F590EB06F000EB16F080E29
:103D6600B26F070EB36F200EB46F000EB56FC8ECBE
:103D760007F0AB0EC96F030ECA6F190ECB6FCC6B73
:103D8600010ECD6FEEEC05F0EC0EC96F030ECA6F97
:103D9600190ECB6F010ECC6F010ECD6FEEEC05F058
:103DA6006C0EAF6F000EB06F080EB16F000EB26FE3
:103DB600020EB36F000EB46F010EB56F19EC06F06C
:103DC6003F0E0501C96F040ECA6F190ECB6F020EA6
:103DD600CC6F010ECD6FEEEC05F0210EC96F040E0F
:103DE600CA6F190ECB6F040ECC6F010ECD6FEEECC1
:043DF60005F01200C2
:103DFA00C26A070EC012C08E9CC500F00036009041
:103E0A00003600900050C212C2805CEC0EF0C282F2
:103E1A00C2A201D0FDD7C4CF01F0006AC35000127C
:083E2A00000E0112C29012000B
:103E3200F29E05019C51000810E2030E0B6E8A0EE1
:103E42000C6E550E0D6E0D2EFED70C2EFCD70B2EC2
:0E3E5200FAD7000000009C07ECD7F28E120099
:103E60009CC589F59DC58AF59EC58BF5020E050199
:103E70009C25F66E000E9D21F76E000E9E21F86EB9
:103E80000900F5CF04F0030E9C25F66E000E9D216F
:103E9000F76E000E9E21F86E0900F5CF03F003C007
:103EA00001F0006A04500024876F000E0120886F23
:103EB000040E9C25F66E000E9D21F76E000E9E21CD
:103EC000F86E0900F5CF04F0050E9C25F66E000E85
:103ED0009D21F76E000E9E21F86E0900F5CF03F0CC
:103EE00003C001F0006A04500024856F000E012019
:103EF000866F060E9C25F66E000E9D21F76E000E55
:103F00009E21F86E0900F5CF71F5000E726F9FC506
:103F10006FF5000E706FA0C56EF5010E0101F66F12
:083F20000501776B786B1200BC
:103F28008C8895829584070E05017D6FF08680B890
:103F380002D0D88001D0D89001E301D0F8D78C986E
:103F4800F096030E026E3FC500F0000E016E02509F
:103F580005E0003600900136FF0FFAD74F0E002417
:103F6800E16E040E0120E26E080E006E7D0EE96E11
:103F7800050EEA6EEECFE6FF0006FCE132EC13F028
:023F8800120025
:103F8A0004014E9D04014EA911D04EA50FD080A860
:103F9A000DD090C59CF5EA0E05019D6F020E9E6F2D
:103FAA00D9EC10F0020E9C6F3FDFECD704014E8D66
:103FBA0090C5AFF5010E0501B06F75EC0FF0120058
:103FCA00380E0501AF6F590EB06F000EB16F080EB3
:103FDA00B26F070EB36F200EB46F000EB56FC8EC48
:103FEA0007F0330EC96F010ECA6F190ECB6FCC6B77
:103FFA00010ECD6FEEEC05F0270EC96F010ECA6FE8
:10400A00190ECB6F020ECC6F010ECD6FEEEC05F0E0
:10401A00E10EC96F000ECA6F190ECB6F040ECC6F7A
:10402A00010ECD6FEEEC05F0D50EC96F000ECA6F0A
:10403A00190ECB6F030ECC6F010ECD6FEEEC05F0AF
:10404A00C90EC96F000ECA6F190ECB6F050ECC6F61
:10405A00010ECD6FEEEC05F0E10EAF6F710EB06F91
:10406A00000EB16F030EB26F050EB36F200EB46F60
:10407A00000EB56FC8EC07F0F70EC96F000ECA6FD5
:10408A00190ECB6F010ECC6F010ECD6FEEEC05F061
:10409A00370EAF6F000EB06F190EB16F000EB26F10
:1040AA00060EB36F000EB46F010EB56F19EC06F071
:1040BA00550E0501AF6F000EB06F190EB16F000EED
:1040CA00B26F060EB36F000EB46F010EB56F19EC26
:1040DA0006F0F20E0501C96F000ECA6F1E0ECB6FF5
:1040EA00040ECC6F010ECD6FEEEC05F0ED0EC96F2C
:1040FA00000ECA6F5F0ECB6F040ECC6F010ECD6F30
:10410A00EEEC05F0320EC96F230ECA6F5A0ECB6F52
:10411A002B0ECC6F010ECD6FC9EC05F0230ED76FB5
:10412A002B0ED86F3F0ED96F010EDA6FDEEC03F05B
:10413A00230ED76F2B0ED86F4C0ED96F010EDA6F84
:06414A00DEEC03F01200A0
:10415000FE0E926E89900F01386B3887388BFF0EF8
:10416000936E396B946A3A6B0F0E956E3B6B966A41
:104170003C6B8C88D00EF26EF088F198970ED56E5D
:0C418000949494928B9409EC13F01200BC
:10418C000900F5CFE6FF0006FBE10106F9E112009C
:10419C000501946B956B966B976B030E986F030EE2
:1041AC00996F030E9A6F93530CE0B80EC96F000E03
:1041BC00CA6F730ECB6F050ECC6F010ECD6FEEEC8C
:1041CC0005F004014EA9A1D04EA59FD01E0E0501ED
:1041DC00945D24E28D80100E0D6E0D2EFED7000026
:1041EC008D90170E0C6E880E0D6E0D2EFED70C2EAC
:1041FC00FCD70000000081BA02D0D88001D0D89042
:10420C0002E30501972B83A002D00501952B83A611
:10421C0002D00501962B0501942BD8D7140E975D6F
:10422C0003E3010E976F01D0976B140E955D03E3BA
:10423C00010E956F01D0956B140E965D03E3010E84
:10424C00966F01D0966B9A51971921E0370E9C6F9F
:10425C00000E9D6F190E9E6F000E9F6F050EA06FC6
:10426C00000EA16F97C5A2F589EC11F0550E050152
:10427C009C6F000E9D6F190E9E6F000E9F6F050EAA
:10428C00A06F000EA16F97C5A2F589EC11F0050186
:10429C00985195190CE0330EAF6F240EB06F3E0E93
:1042AC00B16F2A0EB26F95C5B3F54AEC0BF099516C
:1042BC0096190CE04D0EAF6F240EB06F590EB16F06
:1042CC002A0EB26F96C5B3F54AEC0BF0946B95C5FC
:1042DC0098F596C599F597C59AF580B802D0D8800F
:1042EC0001D0D89011E393530FE0CA0ED76EAC0EE9
:1042FC00D66EF29480B802D0D88001D0D89001E369
:10430C00F9D7F2A401D001D05CD70501931D006E42
:10431C0024E0A50EC96F000ECA6F190ECB6F030EE9
:10432C00CC6F010ECD6FEEEC05F08F0EC96F010E48
:10433C00CA6F190ECB6F050ECC6F010ECD6FEEEC64
:10434C0005F0DA0EC96F010ECA6F730ECB6F050E36
:0C435C00CC6F010ECD6FEEEC05F01200EE
:1043680005019A6B9B6B38D0996B4F0EAF6F09ECB8
:104378000AF000C097F5820E0C6EDD0E0D6E0D2E44
:10438800FED70C2EFCD7000000002FD0500E996FDE
:104398009F0EAF6F09EC0AF000C097F5820E0C6E05
:1043A800DD0E0D6E0D2EFED70C2EFCD70000000082
:1043B8001CD0E90E996FE90EAF6F09EC0AF000C046
:1043C80097F5820E0C6EDD0E0D6E0D2EFED70C2E9F
:1043D800FCD70000000009D04051010AC5E0405157
:1043E800020AD4E04051030AE4E09351FF0A11E1C4
:1043F80099C594F597C599F594C597F5C20E9C6F24
:10440800030E9D6F000E9E6F9F6F030EA06F4DEC05
:1044180019F0800E006E800E050199BF7F0E005CBA
:1044280002E19951975D04E39351010A01E10FD02C
:10443800800E99BF7F0E006E800E005C02E19751DE
:10444800995D04E39351FF0A01E101D0DFD099C5DA
:10445800AFF509EC0AF000C094F5030E0B6E8A0E56
:104468000C6E550E0D6E0D2EFED70C2EFCD70B2E96
:10447800FAD700000000800E9415016E01C095F572
:104488009651011830E09A519B110BE09AC59CF5A2
:104498009BC59DF5000E9E6F9F6F98C5A0F54DECCE
:1044A80019F01A0E0B6E5E0E0C6E6E0E0D6E0D2E42
:1044B800FED70C2EFCD70B2EFAD700008C9C8C9ABA
:1044C800060E0B6E130E0C6EAD0E0D6E0D2EFED776
:1044D8000C2EFCD70B2EFAD70000000005019A6BB2
:1044E8009B6B95C596F59551000A48E194AD03D0AC
:1044F800020E986F02D0030E986F9351FF0A08E1DD
:104508009851020A03E1030E986F02D0020E986FC9
:1045180094AB08D01F0E9415006E00509A27000E19
:104528009B232BD093519925006E00C099F500C0AC
:10453800AFF509EC0AF000C094F5030E0B6E8A0E75
:104548000C6E550E0D6E0D2EFED70C2EFCD70B2EB5
:10455800FAD7000000009351992794C500F0003263
:10456800009E0032009E150E0002F3CF00F0F4CF3B
:1045780001F000509A2701509B2345D0010E986FF7
:1045880094AD14D03F0E9415006E190E0002F3CFAF
:1045980000F0F4CF01F0640E046E000E056E59ECC5
:1045A80003F000509A2701509B232DD094AB08D0DC
:1045B8001F0E9415006E00509A27000E9B2323D0DF
:1045C80094A914D00F0E9415006E190E0002F3CFA3
:1045D80000F0F4CF01F00A0E046E000E056E59ECDF
:1045E80003F000509A2701509B230DD00F0E94150D
:1045F800006E190E0002F3CF00F0F4CF01F0005066
:104608009A2701509B239351992703D79AC59CF564
:104618009BC59DF5000E9E6F9F6F98C5A0F54DEC4C
:1046280019F005019351FF0A02E1E4EC1BF01200B6
:104638000501F1530AE0F2C5E9FFF3C5EAFFF2C547
:10464800E1FFF3C5E2FFE62A09D0F2C5E9FFF3C5A9
:10465800EAFFF2C5E1FFF3C5E2FFE606F2C5E9FFAE
:10466800F3C5EAFFEE50040A06E1F2C5E1FFF3C51F
:10467800E2FF010EE66EF2C5E9FFF3C5EAFFEE5070
:10468800000A06E1F2C5E1FFF3C5E2FF030EE66E9C
:0246980012000E
:10469A000501F1530AE0F2C5E9FFF3C5EAFFF2C5E5
:1046AA00E1FFF3C5E2FFE62A09D0F2C5E9FFF3C547
:1046BA00EAFFF2C5E1FFF3C5E2FFE606F2C5E9FF4C
:1046CA00F3C5EAFFEE50050A06E1F2C5E1FFF3C5BC
:1046DA00E2FF010EE66EF2C5E9FFF3C5EAFFEE500E
:1046EA00000A06E1F2C5E1FFF3C5E2FF040EE66E39
:0246FA001200AC
:1046FC000501F1530AE0F2C5E9FFF3C5EAFFF2C583
:10470C00E1FFF3C5E2FFE62A09D0F2C5E9FFF3C5E4
:10471C00EAFFF2C5E1FFF3C5E2FFE606F2C5E9FFE9
:10472C00F3C5EAFFEE50060A06E1F2C5E1FFF3C558
:10473C00E2FF010EE66EF2C5E9FFF3C5EAFFEE50AB
:10474C00000A06E1F2C5E1FFF3C5E2FF050EE66ED5
:02475C00120049
:10475E0004014E9B04014EA93DD04EA53BD080A82E
:10476E0039D00201EA510501921933E0A20EC96F48
:10477E00000ECA6F1E0ECB6F040ECC6F010ECD6FE6
:10478E00EEEC05F0010E9C6F37EC1BF08C51010A1C
:10479E0012E19351010A0FE1000E80B0010E9C6FE1
:1047AE00920E9D6F050E9E6FF4EC10F0010E9C6F35
:1047BE0037EC1BF0EBD7F29E92C59CF537EC1EF052
:1047CE008CC59CF593C59DF525EC11F0F28E92C526
:0A47DE00EAF2C0D704014E8B12006E
:1047E8000501F1530AE0F2C5E9FFF3C5EAFFF2C596
:1047F800E1FFF3C5E2FFE62A09D0F2C5E9FFF3C5F8
:10480800EAFFF2C5E1FFF3C5E2FFE606F2C5E9FFFC
:10481800F3C5EAFFEE50040A06E1F2C5E1FFF3C56D
:10482800E2FF010EE66EF2C5E9FFF3C5EAFFEE50BE
:10483800000A06E1F2C5E1FFF3C5E2FF030EE66EEA
:0248480012005C
:10484A000501F1530AE0F2C5E9FFF3C5EAFFF2C533
:10485A00E1FFF3C5E2FFE62A09D0F2C5E9FFF3C595
:10486A00EAFFF2C5E1FFF3C5E2FFE606F2C5E9FF9A
:10487A00F3C5EAFFEE50040A06E1F2C5E1FFF3C50B
:10488A00E2FF010EE66EF2C5E9FFF3C5EAFFEE505C
:10489A00000A06E1F2C5E1FFF3C5E2FF030EE66E88
:0248AA001200FA
:1048AC0018EC13F09C6BF9EC18F0E10E9C6F710E88
:1048BC009D6F000E9E6F010E9F6FA06B30EC1FF072
:0848CC009C6B2AEC1DF01200A8
:1048D40004014EB90ED08DC59CF5EA0E05019D6FFD
:1048E400020E9E6FD3EC1DF0020E9C6F19EC1FF0AC
:1048F400EFD705018DC5AFF5010EB06FDBEC09F004
:0249040012009F
:1049060004014EB50ED0E9C29CF5EA0E05019D6F75
:10491600020E9E6F0DEC1DF0010E9C6F19EC1FF040
:10492600EFD70501E9C2AFF5010EB06FA1EC09F0B2
:104936008DC5AFF5B06BDBEC09F0010E8D6F120083
:10494600E10E0501AF6F710EB06F000EB16F030E71
:10495600B26F050EB36F200EB46F000EB56FC8ECC4
:1049660007F09451010A54E19351010A0CE1F80E43
:10497600C96F020ECA6F350ECB6F040ECC6FCD6BAE
:10498600EEEC05F038D09351040A0CE1560EC96FCF
:10499600030ECA6F1E0ECB6F040ECC6FCD6BEEEC02
:1049A60005F029D0690EC96F030ECA6F1E0ECB6FB4
:1049B600040ECC6F010ECD6FEEEC05F09351020A9A
:1049C6000CE17A0EC96F030ECA6F280ECB6F040E68
:1049D600CC6FCD6BEEEC05F00ED09351030A0BE1D4
:1049E600330EC96F030ECA6F3C0ECB6F040ECC6F2D
:1049F600CD6BEEEC05F0380EC96F030ECA6F250EAF
:104A0600CB6F050ECC6F010ECD6FEEEC05F04ED0E0
:104A16009451000A4BE19351010A0DE12B0EC96F27
:104A2600030ECA6F350ECB6F040ECC6F010ECD6F21
:104A3600EEEC05F02FD09351020A0DE1480EC96F36
:104A4600030ECA6F280ECB6F040ECC6F010ECD6F0E
:104A5600EEEC05F01FD09351030A0DE1F30EC96F7A
:104A6600020ECA6F3C0ECB6F040ECC6F010ECD6FDB
:104A7600EEEC05F00FD09351040A0CE1000EC96F5D
:104A8600030ECA6F1E0ECB6F040ECC6F010ECD6FD8
:104A9600EEEC05F0110EC96F040ECA6F250ECB6F32
:104AA600050ECC6F010ECD6FEEEC05F09351010AA9
:104AB60004E09351040A01E011D0380EAF6F590E8D
:104AC600B06F000EB16F080EB26F070EB36F200EF7
:104AD600B46F000EB56FC8EC07F017D09351020AF9
:104AE60004E09351030A01E010D0170EAF6F6E0E6B
:104AF600B06F000EB16F050EB26F070EB36F200ECA
:0E4B0600B46F000EB56FC8EC07F0F27E12001F
:104B1400010E0501406F0201EA6BABEC1EF0EC0ED6
:0A4B2400D76ED00ED66EF294120088
:104B2E000501D76B300ED86F120ED96F010EDA6FEA
:104B3E00DEEC03F0E10EAF6F710EB06F000EB16FD1
:104B4E00030EB26F050EB36F200EB46F000EB56F6D
:104B5E00C8EC07F0B50E9C6F020E9D6F050E9E6F92
:104B6E00000E9F6F050EA06F000EA16FF0EC1AF0F5
:104B7E00CE0E9C6F020E9D6F050E9E6F000E9F6FE8
:104B8E00140EA06F000EA16FF0EC1AF0CB0E9C6FFE
:104B9E00020E9D6F050E9E6F000E9F6F230EA06F6F
:0A4BAE00000EA16FF0EC1AF01200E7
:104BB800380E0501AF6F590EB06F000EB16F080EB9
:104BC800B26F070EB36F200EB46F000EB56FC8EC4E
:104BD80007F0F80EC96F030ECA6F190ECB6FCC6BB6
:104BE800010ECD6FEEEC05F0E10EAF6F710EB06FF8
:104BF800000EB16F030EB26F050EB36F200EB46FC7
:104C0800000EB56FC8EC07F02D0EC96F040ECA6F01
:104C18001E0ECB6F010ECC6F010ECD6FEEEC05F0C2
:104C2800950EC96F030ECA6F1E0ECB6F020ECC6FA6
:104C3800010ECD6FEEEC05F0CE0EC96F030ECA6FF4
:104C48001E0ECB6F030ECC6F010ECD6FEEEC05F090
:104C5800FD0EC96F010ECA6F1E0ECB6F040ECC6F0E
:104C6800010ECD6FEEEC05F0190EC96F010ECA6F7B
:104C78001E0ECB6F050ECC6F010ECD6FEEEC05F05E
:024C8800120018
:104C8A008C888B848B829582958480B802D0D88058
:104C9A0001D0D89001E301D0F8D78C988B948B92ED
:0E4CAA0005019351FF0A02E1E4EC1BF0120039
:104CB80004014EA992D14EA590D17AD11A0E0501C0
:104CC800D76F1C0ED86F0C0ED96F010EDA6FA8ECD7
:104CD80004F004014E83920E0501C96F000ECA6FDD
:104CE8001E0ECB6F010ECC6F010ECD6FEEEC05F0F2
:104CF80074D11A0ED76F1C0ED86F140ED96F010E0F
:104D0800DA6FA8EC04F0F00EAF6F550EB06F39EC07
:104D18000EF0030E0B6E8A0E0C6E550E0D6E0D2ED8
:104D2800FED70C2EFCD70B2EFAD700000000F10E90
:104D38000501AF6F550EB06F39EC0EF0030E0B6E18
:104D48008A0E0C6E550E0D6E0D2EFED70C2EFCD74E
:104D58000B2EFAD700000000F20E0501AF6F550EBA
:104D6800B06F39EC0EF0030E0B6E8A0E0C6E550EFA
:104D78000D6E0D2EFED70C2EFCD70B2EFAD7000089
:104D880000004A0E0501C96F000ECA6F1E0ECB6FD8
:104D9800020ECC6F010ECD6FEEEC05F01ED11A0E8F
:104DA800D76F1C0ED86F2C0ED96F010EDA6FA8ECD6
:104DB80004F09351050A0AE01A0ED76F1C0ED86F3B
:104DC8001C0ED96F010EDA6FA8EC04F0F00EAF6F6D
:104DD800B06B39EC0EF0030E0B6E8A0E0C6E550E8E
:104DE8000D6E0D2EFED70C2EFCD70B2EFAD7000019
:104DF8000000F10E0501AF6FB06B39EC0EF0030E39
:104E08000B6E8A0E0C6E550E0D6E0D2EFED70C2EE7
:104E1800FCD70B2EFAD700000000F20E0501AF6F89
:104E2800B06B39EC0EF0030E0B6E8A0E0C6E550E3D
:104E38000D6E0D2EFED70C2EFCD70B2EFAD70000C8
:104E4800000005019351050A0DE0340EC96F000EEC
:104E5800CA6F1E0ECB6F030ECC6F010ECD6FEEEC3A
:104E680005F0BBD09351050A0AE01A0ED76F1C0E45
:104E7800D86F240ED96F010EDA6FA8EC04F0AF6B6F
:104E8800A00EB06F39EC0EF0030E0B6E8A0E0C6E8E
:104E9800550E0D6E0D2EFED70C2EFCD70B2EFAD705
:104EA800000000004F0E0501AF6FB06B39EC0EF03B
:104EB800030E0B6E8A0E0C6E550E0D6E0D2EFED760
:104EC8000C2EFCD70B2EFAD700000000500E05015F
:104ED800AF6FA00EB06F39EC0EF0030E0B6E8A0E9A
:104EE8000C6E550E0D6E0D2EFED70C2EFCD70B2E0C
:104EF800FAD7000000009F0E0501AF6F500EB06F8B
:104F080039EC0EF0030E0B6E8A0E0C6E550E0D6EFC
:104F18000D2EFED70C2EFCD70B2EFAD70000000062
:104F2800A00E0501AF6FA00EB06F39EC0EF0030EA6
:104F38000B6E8A0E0C6E550E0D6E0D2EFED70C2EB6
:104F4800FCD70B2EFAD700000000E90E0501AF6F61
:104F5800A00EB06F39EC0EF0030E0B6E8A0E0C6EBD
:104F6800550E0D6E0D2EFED70C2EFCD70B2EFAD734
:104F78000000000005019351050A0DE01F0EC96FDE
:104F8800000ECA6F1E0ECB6F040ECC6F010ECD6FD4
:104F9800EEEC05F00CD0600EC96F000ECA6F1E0E45
:104FA800CB6F050ECC6F010ECD6FEEEC05F015D072
:104FB80005019351010AD8B481D69351020AD8B495
:104FC80098D69351050AD8B4EAD69351030AD8B4AF
:0C4FD800F0D69351040AD8B445D712005B
:104FE4000501D76B7F0ED86F310ED96F010EDA6FC2
:104FF400A8EC04F0120E9C6F010E9D6F0B0E9E6FB9
:10500400000E9F6F350EA06F000EA16FF0EC1AF02A
:105014000D0E9C6F010E9D6F330E9E6F000E9F6FE1
:10502400350EA06F000EA16FF0EC1AF03F0E9C6FCE
:10503400010E9D6F510E9E6F000E9F6F350EA06F77
:10504400000EA16FF0EC1AF0670E9C6F700E9D6F4E
:10505400000E9E6F330E9F6F000EA06FD0EC18F001
:02506400120038
:10506600170E05019C6F6A0E9D6F000E9E6F91ECE8
:105076001BF01A0E0B6E5E0E0C6E6E0E0D6E0D2E66
:10508600FED70C2EFCD70B2EFAD700009C6B2AEC11
:045096001DF01200F7
:10509A00010E0501926F91EC1AF0050E925DD8B0DF
:1050AA007DD0010E9C6F37EC1BF08C51010A06E192
:1050BA00922B9251050A01E101D0F7D79251050AC4
:1050CA0001E16CD09C6B37EC1BF092C59CF537EC78
:1050DA001EF0D76AD66AF2940501030E9C6FFDECA6
:1050EA001EF000C08EF501C08FF5800E0118026E09
:1050FA00800E020A025C02E1000E005C10E2820EDF
:10510A000C6EDD0E0D6E0D2EFED70C2EFCD7000098
:10511A000000030E05019C6F73EC1DF03CD0040ED9
:10512A0005019C6FFDEC1EF000C08EF501C08FF5E5
:10513A00800E0118026E800E020A025C02E1000E65
:10514A00005C10E2820E0C6EDD0E0D6E0D2EFED787
:10515A000C2EFCD700000000020E05019C6F73ECB8
:10516A001DF019D080B802D0D88001D0D89003E2BF
:10517A00F2B401D00FD0820E0C6EDD0E0D6E0D2E24
:10518A00FED70C2EFCD70000000005019C6B73ECC7
:0E519A001DF001D0A1D70501922B7FD7120086
:1051A800010E0501926F0201EA6B93C59CF5F0ECC4
:0E51B8001DF0EC0ED76ED00ED66EF2941200E3
:1051C60004014E9F3F0E0501AF6F180EB06F440EDF
:1051D600B16F1E0EB26FB36B4AEC0BF004014EA911
:1051E6000ED04EA50CD080A80AD040C59CF5EA0E7C
:1051F60005019D6F020E9E6FD8EC1CF0EFD70401DF
:105206004E8F300E05014025D76F3F0ED86F030E27
:0C521600D96F010EDA6F10EC04F01200EA
:1052220052EC39F0A8EC20F056EC24F01BDFD9DE6A
:10523200020E0201E96F04014E85020E0501936F11
:1052420075DC04014E898C98928083EC24F064D33F
:1052520004014EA5F4D06AEC24F0E4D05ADC040137
:105262004EA959D04EA557D0ADDF04014E87040197
:105272004EA94BD04EA549D04EA709D0010E05012B
:10528200936F010E946FA3EC24F004014E97030E6A
:1052920005019C6FFDEC1EF000C08EF501C08FF57C
:1052A200800E0118026E800E020A025C02E1000EFC
:1052B200005C10E2010E0501936F946BA3EC24F0E5
:1052C200010E936FE1DCE8DEFF0E936FDDDC04017B
:1052D2004E831BD0040E05019C6FFDEC1EF000C036
:1052E2008EF501C08FF5800E0118026E800E020A43
:1052F200025C02E1000E005C07E2010E0501936F01
:10530200946BA3EC24F001D0B2D704014EA302D0D7
:105312004E9301D0A4D792D08AEC25F053DF04013A
:105322004EA514D04EA912D080B802D0D88001D098
:10533200D89001E3F9D7010E0501936F34DF80B8ED
:1053420002D0D88001D0D89001E3F9D704014EA948
:105352005BD04EA559D0010E0501936FAFEC23F03F
:105362004E8704014EA94AD04EA548D04EA709D077
:10537200030E0501936F010E946FA3EC24F0040158
:105382004E97030E05019C6FFDEC1EF000C08EF5DA
:1053920001C08FF5800E0118026E800E020A025CB7
:1053A20002E1000E005C09E2030E0501936F946BAB
:1053B200A3EC24F004014E8321D0040E05019C6F5E
:1053C200FDEC1EF000C08EF501C08FF5800E0118B5
:1053D200026E800E020A025C02E1000E005C0DE227
:1053E200030E0501936F946BA3EC24F08CC59CF51E
:1053F200010E9D6F25EC11F001D0B3D704014EA32D
:1054020002D04E9301D0A2D719D0E5EC1FF00401CF
:105412004EA907D04EA505D00501936BCEEC20F026
:10542200F6D70CD005018D51010AD8B417D78D518A
:10543200020AD8B471D78D51030AE7E009D779D2AD
:1054420004014EA5F7D06AEC24F0E7D08AEC25F0EF
:1054520004014EA95BD04EA559D0B4DE04014E879B
:1054620004014EA94DD04EA54BD04EA709D0010E36
:105472000501936F010E946FA3EC24F004014E9783
:10548200030E05019C6FFDEC1EF000C08EF501C0FD
:105492008FF5800E0118026E800E020A025C02E194
:1054A200000E005C12E2010E0501936F946BA3ECF7
:1054B20024F0010E936FB4EC21F0EEDDFF0E936F3A
:1054C200B4EC21F004014E831BD0040E05019C6F45
:1054D200FDEC1EF000C08EF501C08FF5800E0118A4
:1054E200026E800E020A025C02E1000E005C07E21C
:1054F200010E0501936F946BA3EC24F001D0B0D799
:1055020004014EA302D04E9301D0A2D792D08AECCE
:1055120025F058DE04014EA514D04EA912D080B851
:1055220002D0D88001D0D89001E3F9D7010E05014D
:10553200936F39DE80B802D0D88001D0D89001E3D1
:10554200F9D704014EA95BD04EA559D0010E050131
:10555200936FAFEC23F04E8704014EA94AD04EA5BB
:1055620048D04EA709D0030E0501936F010E946F28
:10557200A3EC24F004014E97030E05019C6FFDEC91
:105582001EF000C08EF501C08FF5800E0118026E6C
:10559200800E020A025C02E1000E005C09E2030EC8
:1055A2000501936F946BA3EC24F004014E8321D088
:1055B200040E05019C6FFDEC1EF000C08EF501C0CB
:1055C2008FF5800E0118026E800E020A025C02E163
:1055D200000E005C0DE2030E0501936F946BA3ECC9
:1055E20024F08CC59CF5010E9D6F25EC11F001D0C5
:1055F200B3D704014EA302D04E9301D0A2D719D043
:10560200E5EC1FF004014EA907D04EA505D0050117
:10561200936BCEEC20F0F6D70CD005018D51010A28
:10562200D8B414D78D51020AD8B471D78D51030A58
:10563200E7E006D77ED104014EA56DD16AEC24F0D5
:105642005DD18AEC25F004014EA959D04EA557D060
:10565200B9DD04014E8704014EA94BD04EA549D0B5
:105662004EA709D0010E0501936F010E946FA3ECB2
:1056720024F004014E97030E05019C6FFDEC1EF011
:1056820000C08EF501C08FF5800E0118026E800EEB
:10569200020A025C02E1000E005C10E2010E05014A
:1056A200936F946BA3EC24F094EC1FF0FF0E0501B2
:1056B200936FB4EC21F004014E831BD0040E05015C
:1056C2009C6FFDEC1EF000C08EF501C08FF5800EC0
:1056D2000118026E800E020A025C02E1000E005CFA
:1056E20007E2010E0501936F946BA3EC24F001D045
:1056F200B2D704014EA302D04E9301D0A4D70AD14F
:105702008AEC25F05FDD04014EA513D04EA911D01D
:1057120080B802D0D88001D0D89001E3F9D7050132
:10572200936B41DD80B802D0D88001D0D89001E3DC
:10573200F9D704014EA99CD04EA59AD00501936BCE
:10574200AFEC23F04E87CA0ED76EAC0ED66EF29433
:1057520004014EA987D04EA585D04EA71BD080B894
:1057620002D0D88001D0D89001E3F9D7F2A409D0B1
:1057720005019181020E936F010E946FA3EC24F048
:1057820007D00501030E936F010E946FA3EC24F072
:1057920004014E97030E05019C6FFDEC1EF000C044
:1057A2008EF501C08FF5800E0118026E800E020A7E
:1057B200025C02E1000E005C2DE2050191A122D003
:1057C2008CC5EAF29C6B37EC1BF0020E936F946B64
:1057D200A3EC24F0820E0C6EDD0E0D6E0D2EFED7A4
:1057E2000C2EFCD700000000040E9C6F73EC1DF021
:1057F2008CC59CF505019D6B25EC11F0919192C52C
:10580200EAF207D0030E936F946BA3EC24F0040129
:105812004E8328D0040E05019C6FFDEC1EF000C0E3
:105822008EF501C08FF5800E0118026E800E020AFD
:10583200025C02E1000E005C14E2050191A106D0B7
:10584200020E936F946BA3EC24F005D0030E936FBA
:10585200946BA3EC24F08CC59CF59D6B25EC11F0A8
:1058620001D076D704014EA302D04E9301D061D766
:1058720051D0E5EC1FF004014EA93FD04EA53DD01A
:10588200010E0501936FCEEC20F004014E9D4E8B6C
:105892004E8F010E0501906F04014EA90FD04EA547
:1058A2000DD0DCEC25F0C5EC1FF090C593F55CEC57
:1058B20026F004014EA301D001D0EED7D10E05018E
:1058C200C96F020ECA6F190ECB6F030ECC6F010E99
:1058D200CD6FEEEC05F0650EC96F020ECA6F190EA0
:1058E200CB6F050ECC6F010ECD6FEEEC05F004010F
:1058F2004EA302D04E9301D0BED70CD005018D51DC
:10590200010AD8B49ED68D51020AD8B4F9D68D5167
:10591200030AAFE090D60DD00201E951010AD8B4D2
:1059220097D4E951020AD8B48BD5E951030AD8B405
:0659320082D68BD4FFD7E2
:1072A40010EE1FF02C0E006E050E016EEB0EF66E46
:0E72B400650EF76E000EF86EC6EC20F01200AC
:10593800000000000000000000065F5F0600000095
:105948000007070007070000147F7F147F7F1400FB
:10595800242E6B6B3A120000466630180C66620003
:10596800307A4F5D377A48000407030000000000D2
:10597800001C3E63410000000041633E1C00000023
:10598800082A3E1C1C3E2A0808083E3E080800005B
:105998000080E0600000000008080808080800000F
:1059A80000006060000000006030180C0603010071
:1059B8003E7F71594D7F3E0040427F7F404000004E
:1059C800627359496F660000226349497F360000B7
:1059D800181C16537F7F5000276745457D39000006
